:100000000C94600C0C948A0C0C948A0C0C948A0C42
:100010000C948A0C0C948A0C0C948A0C0C948A0C08
:100020000C948A0C0C9414A40C9414A40C9414A492
:100030000C948A0C0C948A0C0C948A0C0C948A0CE8
:100040000C948A0C0C94051F0C948A0C0C948A0C4A
:100050000C948A0C0C948A0C0C94A31B0C9427A867
:100060000C948A0C0C94FF950C948A0C0C948A0CBA
:100070000C948A0C0C948A0C0C948A0C0C948A0CA8
:100080000C945B4F0C948A0C0C948A0C0C948A0C84
:100090000C948A0C0C948A0C0C948A0C0C94EEA18F
:1000A0000C948A0C0C948A0C0C94894F0C948A0C36
:1000B0000C948A0C0C948A0C0C948A0C0C94B74FF8
:1000C0000C948A0C0C948A0C0C948A0C0C948A0C58
:1000D0000C948A0C0C948A0C0C948A0C0C948A0C48
:1000E0000C948A0C1E1C2B1C471C541C6E1C7B1C65
:1000F000951C971CA01CAC1CC61CD31CED1CFA1C28
:10010000141D211D391DF863F8630364036403643F
:100110000E640E640E642364196419641964C7A61E
:10012000CCA6D1A6DBA6E5A65EA7EFA6F7A6FFA6FE
:1001300009A713A71DA72CA736A75EA740A74AA704
:1001400054A780A783A772A776A77CA7BAA787A77B
:100150008BA791A795A799A79FA7A3A7A7A7BAA77A
:10016000ADA7B1A7B5A7084AD73B3BCE016E84BC6B
:10017000BFFDC12F3D6C74319ABD56833DDA3D0001
:10018000C77F11BED9E4BB4C3E916BAAAABE00004A
:1001900000803F05A84CCDB2D44EB93836A9020C28
:1001A00050B9918688083CA6AAAA2ABE0000008001
:1001B0003F000A00207A3A200020793A2000207877
:1001C0003A200054656D70657261747572652068BF
:1001D000656174656420626564207377697463681F
:1001E0006564206F66662E204D415854454D502061
:1001F000747269676765726564202121003A204541
:100200007874727564657220737769746368656465
:10021000206F66662E204D494E54454D5020747215
:10022000696767657265642021003A2045787472B9
:1002300075646572207377697463686564206F669E
:10024000662E204D415854454D50207472696767A1
:1002500065726564202100202D20496E76616C69ED
:1002600064206578747275646572206E756D626560
:1002700072202100504944204175746F74756E6579
:100280002066696E697368656421205075742074F6
:100290006865206C617374204B702C204B69206161
:1002A0006E64204B6420636F6E7374616E74732090
:1002B00066726F6D2061626F766520696E746F2063
:1002C000436F6E66696775726174696F6E2E680040
:1002D000504944204175746F74756E65206661697C
:1002E0006C6564212074696D656F75740020403AF7
:1002F000006F6B20543A006F6B20423A0050494423
:10030000204175746F74756E65206661696C6564F3
:10031000212054656D706572617475726520746F0B
:100320006F206869676800204B643A2000204B69A1
:100330003A2000204B703A200020436C61737369AF
:10034000632050494420002054753A2000204B750A
:100350003A2000206D61783A2000206D696E3A20C5
:100360000020643A200020626961733A20004572DF
:10037000726F723A001000AA03F0013A0190022253
:100380000130031001D00302017004F7001005EDE5
:1003900000B005E5005006DD00F006D7009007D15B
:1003A000003008CC00D008C7007009C300100ABE96
:1003B00000B00ABB00500BB700F00BB300900CB0BC
:1003C00000D00DAA00100FA5005010A00090119BA6
:1003D00000D0129600B014900090168B0070188513
:1003E00000501A8000301C7B00B01E750030216F59
:1003F00000B02369003026640010285F00902A5A5C
:1004000000702C5500F02E4F0070314800B032457E
:1004100000F0334100703639001037370050383360
:100420000090392D00D03A2700B03C1C00503D17F9
:1004300000F03D1100903E0900D03FE5FFD0002CB8
:1004400001E00027010001220110011D0120011817
:10045000013001130150010E016001090180010406
:1004600001A001FF00C001FA00F001F5001002F048
:10047000004002EB008002E600B002E100F002DC86
:10048000004003D7009003D200E003CD004004C831
:1004900000B004C3003005BE00B005B9005006B47A
:1004A000000007AF00B007AA009008A5008009A0CF
:1004B00000800A9B00B00B9600F00C9100600E8C3F
:1004C00000E00F8700A011820080137D0080157866
:1004D00000B0177300001A6E00701C6900001F64E2
:1004E00000B0215F0060245A0010275500C0295039
:1004F00000602C4B00E02E46003031410060333C60
:10050000006035370020373200B0382D00103A280F
:1005100000303B2300303C1E00003D1900A03D147C
:1005200000303E0F00A03E0A00F03E0500403F00B4
:100530000070012C0190012701B0012201C0011DB2
:1005400001F00118011002130130020E01600209CE
:100550000190020401C002FF000003FA004003F50D
:10056000008003F000D003EB002004E6007004E1FB
:1005700000E004DC004005D700C005D2004006CDF5
:1005800000D006C8008007C3003008BE00F008B9DC
:1005900000C009B400B00AAF00B00BAA00D00CA58F
:1005A00000000EA000500F9B00C01096005012914A
:1005B0000000148C00C0158700B0178200B0197DB0
:1005C00000D01B7800001E730040206E009022694E
:1005D00000F024640040275F0090295A00E02B556A
:1005E00000102E500020304B0010324600E0334106
:1005F0000090353C001037370070383200A0392D9C
:1006000000B03A2800A03B2300603C1E00103D19BA
:1006100000903D1400103E0F00703E0A00C03E05E1
:1006200000003F0000205A3A0020593A0020583A72
:1006300000656E6473746F7073206869743A20008B
:1006400024F4D43050C38E20C2A24017828B701184
:10065000127A910D816CD90AA861E108C758660722
:10066000615143061E4B5D05C145A7041A411104A3
:10067000093D9803713931034036DB02653391023D
:10068000D4305402802E1D02632CEE01752AC50160
:10069000B028A001102781018F2564012B244B0174
:1006A000E0223401AC211F018D200D01801FFC00D0
:1006B000841EED00971DDF00B81CD200E61BC600AB
:1006C000201BBC00641AB200B219A8000A19A000CD
:1006D0006A189900D117910040178B00B516840055
:1006E00031167E00B31579003A157300C7146F00F8
:1006F00058146A00EE1366008813630025135E0029
:10070000C7125B006C12570015125400C111510042
:1007100070114F0021114B00D61049008D10470079
:100720004610440002104200C00F4000800F3E00FF
:10073000420F3C00060F3B00CB0E3800930E3700F3
:100740005C0E3500270E3400F30D3200C10D310070
:10075000900D3000600D2E00320D2D00050D2C0087
:10076000D90C2B00AE0C2900850C29005C0C27004D
:10077000350C27000E0C2600E80B2400C40B2400C7
:10078000A00B23007D0B23005A0B2100390B210005
:10079000180B2000F80A1F00D90A1E00BB0A1E0011
:1007A0009D0A1D00800A1D00630A1C00470A1B00E9
:1007B0002C0A1B00110A1A00F7091A00DD0919009A
:1007C000C4091900AB091900920917007B09180028
:1007D000630917004C091600360916002009160097
:1007E0000A091500F5081500E0081400CC081400EB
:1007F000B8081400A4081400900813007D08120023
:100800006B08130058081200460812003408110043
:10081000230811001208110001081100F007100050
:10082000E0071000D0071000C0071000B0070F004D
:10083000A107100091070E0083070F0074070F0037
:1008400065070E0057070E0049070E003B070D0015
:100850002E070E0020070D0013070D0006070D00E0
:10086000F9060C00ED060D00E0060C00D4060C00A5
:10087000C8060C00BC060C00B0060C00A4060B0059
:1008800099060C008D060B0082060B0077060B0004
:100890006C060B0061060A0057060B004C060A00A6
:1008A00042060A0038060A002E060A0024060A003C
:1008B0001A060A001006090007060A00FD050900CD
:1008C000F4050900EB050900E2050900D905090056
:1008D000D0050900C7050900BE050900B5050800D7
:1008E000AD050800A50509009C0508009405080051
:1008F0008C050800840508007C05080074050800C4
:100900006C050700650508005D0507005605080031
:100910004E05070047050700400508003805070099
:10092000310507002A050700230507001C050600FE
:10093000160507000F050700080506000205070059
:10094000FB040600F5040700EE040600E8040600B8
:10095000E2040700DB040600D5040600CF0406000D
:10096000C9040600C3040600BD040600B70406005F
:10097000B1040500AC040600A6040600A0040500AE
:100980009B04060095040500900406008A040500F7
:1009900085040500800406007A040500750405003E
:1009A000700405006B040500660405006104050081
:1009B0005C04050057040500520405004D040500C1
:1009C00048040500430405003E0404003A04050001
:1009D00035040500300404002C040500270404003D
:1009E000230405001E0404001A0404001604050074
:1009F000110404000D0404000904050004040400AB
:100A000000040400FC030400F8030400F4030400E1
:100A1000F0030400EC030400E8030400E403040012
:100A2000E0030400DC030400D8030400D403040042
:100A3000D0030400CC030400C8030300C503030073
:100A400024F404D9201BC40C5C0E9804C4095F0272
:100A500065077101F405F900FB04B3004804870041
:100A6000C10369005803550003034500BE023A0064
:100A70008402310053022A002902250004022000CA
:100A8000E4011C00C8011900AF011700980114000F
:100A900084011300710110006101100051010E006A
:100AA00043010D0036010B002B010B0020010B0050
:100AB000150109000C01090003010800FB000800F2
:100AC000F3000800EB000700E4000600DE0006006B
:100AD000D8000600D2000600CC000500C7000500C3
:100AE000C2000500BD000400B9000400B500040008
:100AF000B1000400AD000400A9000400A50003003B
:100B0000A20003009F0004009B0003009800030064
:100B10009500020093000300900003008D00020086
:100B20008B0003008800020086000200840003009E
:100B3000810002007F0002007D0002007B000200B5
:100B400079000200770001007600020074000200C4
:100B500072000100710002006F0002006D000100D0
:100B60006C0002006A0001006900020067000100D9
:100B700066000100650001006400020062000100DF
:100B800061000100600001005F0002005D000100E3
:100B90005C0001005B0001005A00010059000100E7
:100BA00058000100570001005600010055000100E7
:100BB00054000100530000005300010052000100E6
:100BC00051000100500001004F0001004E000000E4
:100BD0004E0001004D0001004C0001004B000000E0
:100BE0004B0001004A0001004900010048000000DC
:100BF00048000100470001004600000046000100D7
:100C000045000000450001004400010043000000D1
:100C100043000100420000004200010041000000CA
:100C200041000100400001003F0000003F000100C2
:100C30003E0000003E0001003D0000003D000100BC
:100C40003C0000003C0000003C0001003B000000B4
:100C50003B0001003A0000003A00010039000000AA
:100C600039000100380000003800000038000100A1
:100C70003700000037000100360000003600000099
:100C8000360001003500000035000000350001008D
:100C90003400000034000000340001003300000084
:100CA0003300000033000100320000003200000079
:100CB000320001003100000031000000310001006D
:100CC0003000000030000000300001002F00000064
:100CD0002F0000002F0000002F0001002E00000058
:100CE0002E0000002E0001002D0000002D0000004D
:100CF0002D0000002D0001002C0000002C00000041
:100D00002C0000002C0001002B0000002B00000034
:100D10002B0000002B0001002A0000002A00000028
:100D20002A0000002A00010029000000290000001C
:100D3000290000002900000029000100280000000F
:100D40002800000028000000280000002800010002
:100D500027000000270000002700000027000000F7
:100D600027000100260000002600000026000000E9
:100D700026000000260001002500000025000000DC
:100D800025000000250000002500000025000100CE
:100D900024000000240000002400000024000000C3
:100DA00024000100230000002300000023000000B5
:100DB00023000000230000002300000023000100A6
:100DC000220000002200000022000000220000009B
:100DD000220000002200010021000000210000008C
:100DE000210000002100000021000000210000007F
:100DF0002100010020000000200000002000000071
:100E00002000000020000000200000002000000062
:100E1000200001001F0000001F0000001F00000054
:100E20001F0000001F0000001F0000001F00010045
:100E30001E0000001E0000001E0000001E0000003A
:100E40006563686F3A0020746F6F206C6F6E672067
:100E5000657874727573696F6E2070726576656EF1
:100E60007465640020636F6C6420657874727573B8
:100E7000696F6E2070726576656E74656400656377
:100E8000686F3A005072696E7465722073746F7087
:100E90007065642064756520746F206572726F726E
:100EA000732E2046697820746865206572726F72AF
:100EB00020616E6420757365204D39393920746F57
:100EC00020726573746172742E202854656D70658C
:100ED0007261747572652069732072657365742E12
:100EE0002053657420697420616674657220726590
:100EF0007374617274696E6729005072696E7465EB
:100F0000722068616C7465642E206B696C6C282992
:100F10002063616C6C656421005072696E74657247
:100F20002068616C7465642E206B696C6C282920C4
:100F300063616C6C656421006F6B00526573656E54
:100F4000643A20000A00207A3A200020793A2000F2
:100F500020783A2000426564002200556E6B6E6F67
:100F6000776E20636F6D6D616E643A202200436F6F
:100F70006D6D756E69636174696F6E20696E7465FD
:100F80007266616365206E6F742073706563696655
:100F900069656400536D61727420686561642063E3
:100FA0006F6D6D756E69636174696F6E20646973CE
:100FB00061626C6564206279206163746976652082
:100FC000746F6F6C20646566696E6974696F6E001A
:100FD000432D3E003A0020205400432D3E002020A7
:100FE000202041444320423A004973696E6B656496
:100FF0003A00565F35563A00565F3234563A005042
:10100000726573737572653A0000202F20747769DA
:101010003A6F666600202F207477693A6F6E003A47
:101020002064726976653A00540020202000202A4E
:101030002000007A5F6D61783A20007A5F6D696EFA
:101040003A20005A204F666673657400486F7465D5
:101050006E64206F6666736574733A007A5F6D61C3
:10106000783A20007A5F6D696E3A2000795F6D6191
:10107000783A2000795F6D696E3A2000785F6D6183
:10108000783A2000785F6D696E3A2000205A3A0065
:1010900020593A0020436F756E7420583A20002082
:1010A000453A00205A3A0020593A00583A00464939
:1010B000524D574152455F4E414D453A4D61726C1C
:1010C000696E2056313B20537072696E7465722FC1
:1010D0006772626C206D617368757020666F722034
:1010E00067656E36204649524D574152455F55520D
:1010F0004C3A68747470733A2F2F6769746875621C
:101100002E636F6D2F4572696B5A616C6D2F4D6147
:10111000726C696E2F2050524F544F434F4C5F56A4
:10112000455253494F4E3A312E30204D41434849A4
:101130004E455F545950453A4D656E64656C204587
:10114000585452554445525F434F554E543A3320FC
:10115000555549443A30303030303030302D303011
:1011600030302D303030302D303030302D30303088
:101170003030303030303030300A0020423A0020F9
:10118000453A00543A0020573A0020453A00543A74
:10119000002042403A0020403A00202F003A002030
:1011A0005400202F0020423A00202F006F6B205463
:1011B0003A002569206D696E2C20256920736563CE
:1011C000000A00205A3A200020593A200020583ABC
:1011D0002000426564000A00205A3A200020593A53
:1011E000200020583A200042656400200020466517
:1011F0006564726174653A200020643A20002062C0
:101200003A200045716E20636F65666669636965A3
:101210006E74733A20613A2000486F6D6520582F34
:1012200059206265666F7265205A005A2070726F8D
:101230006265206F75742E2062656400486F6D656D
:1012400020582F59206265666F7265205A005072CF
:10125000696E7465722073746F7070656420647554
:101260006520746F206572726F72732E20466978E4
:1012700020746865206572726F7220616E642075DB
:101280007365204D39393920746F2072657374612C
:1012900072742E202854656D706572617475726564
:1012A0002069732072657365742E205365742069FC
:1012B00074206166746572207265737461727469FA
:1012C0006E6729006F6B004E6F204C696E65204E73
:1012D000756D626572207769746820636865636BF9
:1012E00073756D2C204C617374204C696E653A20C7
:1012F000004E6F20436865636B73756D207769746A
:1013000068206C696E65206E756D6265722C204C6C
:10131000617374204C696E653A2000636865636B85
:1013200073756D206D69736D617463682C204C61F9
:101330007374204C696E653A20004C696E65204ECE
:10134000756D626572206973206E6F74204C6173D5
:1013500074204C696E65204E756D6265722B312C60
:10136000204C617374204C696E653A20004D313118
:101370003000206973206E6F742061637469766534
:1013800000436F6D6D20696E7465726661636520E0
:1013900000496E76616C696420696E74657266617D
:1013A000636520230043616E6E6F7420666F7277F1
:1013B00061726420636F6D6D616E647320746F2061
:1013C000696E746572666163652023300020205069
:1013D0006C616E6E6572427566666572427974659F
:1013E000733A20002046726565204D656D6F7279F5
:1013F0003A20004641427465616D00207C204175B1
:1014000074686F723A20004F637420313820323094
:1014100031362031373A30393A323600204C617358
:101420007420557064617465643A20005620312E32
:10143000302E303039352E31004D61726C696E209E
:10144000666F7220464142746F74756D20506572EC
:10145000736F6E616C2046616272696361746F7252
:101460000020536F667477617265205265736574EE
:1014700000205761746368646F67205265736574F8
:10148000002042726F776E206F757420526573650D
:1014900074002045787465726E616C2052657365C6
:1014A0007400506F776572557000737461727400C8
:1014B000FFFFFF0000A0400000A04000000040002F
:1014C00000564300006A43008071430000000000A2
:1014D000000000000000000000564300006A4300C6
:1014E0008071430000000000000000000000006563
:1014F00063686F3A004572726F723A0048617264B5
:10150000636F6465642044656661756C742053651F
:101510007474696E6773204C6F6164656400537402
:101520006F7265642073657474696E677320726589
:1015300074726965766564005A2050726F62652026
:101540004C656E6774683A2000536572766F20456B
:101550006E6473746F702073657474696E67733A28
:10156000002044002049002020204D3330312050FD
:10157000005049442073657474696E67733A0020A3
:101580005A0020590020204D323036205800486F34
:101590006D65206F666673657420286D6D293A004D
:1015A000204500205A0020580020420020540020EE
:1015B000204D323035205300416476616E6365649E
:1015C000207661726961626C65733A20533D4D69A2
:1015D0006E20666565647261746520286D6D2F7379
:1015E000292C20543D4D696E2074726176656C2003
:1015F000666565647261746520286D6D2F73292C92
:1016000020423D6D696E696D756D207365676D650E
:101610006E742074696D6520286D73292C20583DE7
:101620006D6178696D756D205859206A65726B20FF
:10163000286D6D2F73292C20205A3D6D6178696DBE
:10164000756D205A206A65726B20286D6D2F732985
:101650002C2020453D6D6178696D756D2045206AAF
:1016600065726B20286D6D2F732900205400202097
:101670004D323034205300416363656C6572617490
:10168000696F6E3A20533D616363656C6572617486
:10169000696F6E2C20543D726574726163742061B1
:1016A0006363656C65726174696F6E00204500202C
:1016B0005A0020590020204D3230312058004D6111
:1016C00078696D756D20416363656C6572617469DD
:1016D0006F6E20286D6D2F7332293A00204500204F
:1016E0005A0020590020204D3230332058004D61DF
:1016F00078696D756D2066656564726174657320C7
:10170000286D6D2F73293A00204500205A0020597A
:101710000020204D393220580053746570732070BA
:10172000657220756E69743A002042617564726159
:1017300074653A2000464142746F74756D20544FB1
:1017400054554D4455494E4F0053657474696E6746
:10175000732053746F726564006563686F3A0000AC
:10176000000A0B02090C0D0E08070304010000001B
:101770000000000000000000000000000000000069
:101780000000000000000000000000121110000026
:101790000000000000000000000000000000000049
:1017A0000000000000010210202008081020401056
:1017B0002040800201020108040201010204081015
:1017C0002040808040201008040201800402018033
:1017D000402010080402010804020101020408105C
:1017E00020408001020408102040800505050507FF
:1017F0000508080808020202020A0A08080404048C
:1018000004010101010101010103030303030303B7
:1018100003040707070C0C0C0C0C0C0C0C02020246
:101820000206060606060606060B0B0B0B0B0B0B39
:101830000B000020002300260029002C002F00327E
:10184000000001000003010601090100002200253B
:101850000028002B002E003100340002010000059A
:101860000108010B0100002100240027002A002D9F
:10187000003000330001010000040107010A014E9D
:10188000414E494E495459494E46CDCCCC3D0AD7DC
:10189000233C17B7D13877CC2B329595E6241FB16E
:1018A0004F0A000020410000C84200401C4620BCF6
:1018B000BE4CCA1B0E5AAEC59D74B2640DA1D56450
:1018C00011241FBECFEFD1E2DEBFCDBF15E0A0E0F7
:1018D000B2E0EAECFFE601E00BBF02C007900D9218
:1018E000AC3FB107D9F711E1ACEFB5E001C01D92F3
:1018F000A233B107E1F71CE0CFE5DCE004C021979B
:10190000FE010E946EAFCD35D107C9F70E9449AAEA
:101910000C94D8B70C940000CF92DF92EF92FF9214
:101920000F931F93FC01408351836283738304836D
:10193000158326833783C086D186E286F3861F917E
:101940000F91FF90EF90DF90CF9008954F925F92AC
:101950006F927F928F929F92AF92BF92CF92DF92BF
:10196000EF92FF92FC01608171818281938184807A
:101970009580A680B780C084D184E284F3849B01E3
:10198000AC010E942FAE2B013C01A5019401C501C1
:10199000B4010E942FAE9B01AC01C301B2010E94B1
:1019A00081AA4B015C01A7019601C701B6010E9403
:1019B0002FAE9B01AC01C501B4010E9481AAFF902A
:1019C000EF90DF90CF90BF90AF909F908F907F90DF
:1019D0006F905F904F900C949CAECF92DF92EF92FD
:1019E000FF92CF93DF93EC010E94A60C6B017C0168
:1019F0009B01AC01688179818A819B810E9461ABE6
:101A0000688379838A839B83A70196016C817D819A
:101A10008E819F810E9461AB6C837D838E839F83C7
:101A2000A7019601688579858A859B850E9461ABAF
:101A3000688779878A879B87DF91CF91FF90EF90A6
:101A4000DF90CF9008954F925F926F927F928F9226
:101A50009F92AF92BF92CF92DF92EF92FF920F933D
:101A60001F93CF93DF93CDB7DEB728970FB6F894C7
:101A7000DEBF0FBECDBF8C01DC014D905D906D903F
:101A80007C90139714968D909D90AD90BC90179775
:101A90001896CD90DD90ED90FC901B972F8D38A17E
:101AA00049A15AA1C301B2010E942FAE69837A8372
:101AB0008B839C832BA53CA54DA55EA5C501B401D8
:101AC0000E942FAE9B01AC0169817A818B819C8140
:101AD0000E9481AA69837A838B839C832FA938AD66
:101AE00049AD5AADC701B6010E942FAE9B01AC01B2
:101AF00069817A818B819C810E9481AA69837A8322
:101B00008B839C832BA13CA14DA15EA1C301B2019B
:101B10000E942FAE6D837E838F8398872FA538A96F
:101B200049A95AA9C501B4010E942FAE9B01AC017D
:101B30006D817E818F8198850E9481AA6D837E83CD
:101B40008F8398872BAD3CAD4DAD5EADC701B6011F
:101B50000E942FAE9B01AC016D817E818F819885A3
:101B60000E9481AA6D837E838F8398872B8D3C8D05
:101B70004D8D5E8DC301B2010E942FAE2B013C0141
:101B80002FA138A549A55AA5C501B4010E942FAEC1
:101B90009B01AC01C301B2010E9481AA4B015C010F
:101BA0002BA93CA94DA95EA9C701B6010E942FAE81
:101BB0009B01AC01C501B4010E9481AAF8016083B8
:101BC00071838283938389819A81AB81BC81848371
:101BD0009583A683B7838D819E81AF81B8858087E9
:101BE0009187A287B38728960FB6F894DEBF0FBE01
:101BF000CDBFDF91CF911F910F91FF90EF90DF90BC
:101C0000CF90BF90AF909F908F907F906F905F909C
:101C10004F900895CF93DF93EC01FB018191BF01B9
:101C2000882339F09091C00095FFFCCF8093C600C7
:101C3000F4CFEEEBF1E09491992341F08091C00054
:101C400085FFFCCF9093C6003196F5CF488159812E
:101C50006A817B8126E030E08AE99FE00E944C980F
:101C6000E9EBF1E09491992341F08091C00085FF68
:101C7000FCCF9093C6003196F5CF4C815D816E818B
:101C80007F8126E030E08AE99FE00E944C98E4EBF7
:101C9000F1E09491992341F08091C00085FFFCCF41
:101CA0009093C6003196F5CF488559856A857B8526
:101CB00026E030E08AE99FE00E944C98E2EBF1E0F8
:101CC0008491882341F09091C00095FFFCCF8093D0
:101CD000C6003196F5CFDF91CF9108950F931F93F2
:101CE000CF93DF93CDB7DEB72C970FB6F894DEBF56
:101CF0000FBECDBFEBADFCAD80819181A281B381E0
:101D0000E9ADFAAD4081518162817381EFA9F8ADEF
:101D1000008111812281338109831A832B833C83C3
:101D20004D835E836F83788789879A87AB87BC876B
:101D30008DB79EB784970FB6F8949EBF0FBE8DBF28
:101D4000ADB7BEB7119684E2FE01739601900D9275
:101D50008A95E1F7CE0101960E94230D89819A812F
:101D6000AB81BC81EFA9F8AD80839183A283B3835B
:101D70008D819E81AF81B885E9ADFAAD8083918375
:101D8000A283B38389859A85AB85BC85EBADFCAD19
:101D900080839183A283B3830FB6F894DEBF0FBE16
:101DA000CDBF2C960FB6F894DEBF0FBECDBFDF912E
:101DB000CF911F910F910895FC0180E090E0A0E881
:101DC000BFE380839183A283B3831482158216823A
:101DD000178210861186128613861486158616863B
:101DE0001786808B918BA28BB38B148A158A168AE7
:101DF000178A108E118E128E138E148E158E168EDB
:101E0000178E80A391A3A2A3B3A308954F925F92CC
:101E10006F927F92AF92BF92CF92DF92EF92FF923A
:101E20000F931F93CF93DF93CDB7DEB7C854D1097B
:101E30000FB6F894DEBF0FBECDBF5C01CDA2DEA20F
:101E4000EFA2F8A609A71AA72BA73CA74DA75EA744
:101E50006FA778AB4DA15EA16FA178A5C9A4DAA444
:101E6000EBA4FCA44DA45EA46FA478A8498F5A8F5C
:101E70006B8F7C8FCD8EDE8EEF8EF8A249A25AA298
:101E80006BA27CA2CE01499622964FAF2297239651
:101E90005FAF239724966FAF249725967FAF259742
:101EA0000E94ED0C80E090E0A0E8BFE38D879E8764
:101EB000AF87B88B198A1A8A1B8A1C8A22964FAD63
:101EC000229723965FAD239724966FAD249725968E
:101ED0007FAD2597CB01BA019058A30192010E94D2
:101EE00061AB6D8B7E8B8F8B988FCE010D960E9490
:101EF000ED0C19821A821B821C8280E090E0A0E81F
:101F0000BFE38D839E83AF83B887C701B601905826
:101F1000A30192010E9461AB69877A878B879C87B6
:101F2000CE0101960E94ED0C49885A886B887C8806
:101F3000CD88DE88EF88F88C09811A812B813C815D
:101F40004D815E816F81788589859A85AB85BC8559
:101F500029968CAF9DAFAEAFBFAF2997898D9A8D73
:101F6000AB8DBC8D89AB9AABABABBCAB8D8D9E8D75
:101F7000AF8DB8A18DAB9EABAFABB8AF89A19AA125
:101F8000ABA1BCA189AF9AAFABAFBCAF8D859E852D
:101F9000AF85B889F50180839183A283B38344829E
:101FA000558266827782C086D186E286F386048770
:101FB000158726873787408B518B628B738B2996C9
:101FC0008CAD9DADAEADBFAD2997848B958BA68BA7
:101FD000B78B89A99AA9ABA9BCA9808F918FA28F31
:101FE000B38F8DA99EA9AFA9B8AD848F958FA68F09
:101FF000B78F89AD9AADABADBCAD80A391A3A2A3C1
:10200000B3A3C501C85BDF4F0FB6F894DEBF0FBEA8
:10201000CDBFDF91CF911F910F91FF90EF90DF9097
:10202000CF90BF90AF907F906F905F904F9008954A
:10203000CF93DF93CDB7DEB7FC018D819E81AF8159
:10204000B88580839183A283B38389899A89AB8978
:10205000BC8984839583A683B7838D8D9E8DAF8D38
:10206000B8A180879187A287B38789859A85AB8538
:10207000BC8584879587A687B7878D899E89AF8918
:10208000B88D808B918BA28BB38B89A19AA1ABA1C8
:10209000BCA1848B958BA68BB78B8D859E85AF85D8
:1020A000B889808F918FA28FB38F898D9A8DAB8DD8
:1020B000BC8D848F958FA68FB78F8DA19EA1AFA168
:1020C000B8A580A391A3A2A3B3A3CF01DF91CF9121
:1020D00008950F9370E0FB01EA55FD4F4083FB012B
:1020E000ED55FD4F2083FB01E056FD4F00830F911E
:1020F00008956093470F70E0FB01EA55FD4F808122
:102100008093460FFB01E056FD4F908181E08927C7
:102110008093450F2091230F3091240F25303105F6
:1021200068F4882331F08091BC008B7F8093BC00E1
:1021300010C08FE190E10E94D1A00BC0882329F04C
:102140008DEE9CE00E94E1A504C08DEE9CE00E9413
:10215000D4A58091460F08952F923F924F925F929F
:102160006F927F928F929F92AF92BF92CF92DF92A7
:10217000EF92FF920F931F93CF93DF93EC0145E310
:1021800055E081E090E0FA0125913491C217D30720
:102190000CF05EC09C0121503109220F331F220F29
:1021A000331FD901AD5CBA4FFD01659174912F5C6D
:1021B0003A4FF901A590B490FC01EE0FFF1FEE0F0E
:1021C000FF1FED5CFA4FE590F490FD01C590D490AF
:1021D000FA0105911491F90125903490882777FD33
:1021E0008095982F0E94FCAB2B013C01CA19DB099A
:1021F000BE01882777FD8095982F0E94FCAB4B018C
:102200005C01B7016C197D09882777FD8095982FAF
:102210000E94FCAB9B01AC01C501B4010E942FAE32
:102220006B017C01B80162197309882777FD8095DD
:10223000982F0E94FCAB9B01AC01C701B6010E9424
:1022400061AB9B01AC01C301B2010E9481AA11C024
:1022500001964C5F5F4F8D33910509F094CFE3E217
:10226000F6E065917491882777FD8095982F0E94FC
:10227000FCABDF91CF911F910F91FF90EF90DF901A
:10228000CF90BF90AF909F908F907F906F905F9016
:102290004F903F902F9008952F923F924F925F92D0
:1022A0006F927F928F929F92AF92BF92CF92DF9266
:1022B000EF92FF920F931F93CF93DF9300D000D044
:1022C00000D0CDB7DEB78C01F62E22E0261758F5E8
:1022D000EEE6F3E08491882341F09091C00095FFF1
:1022E000FCCF8093C6003196F5CF6F2D70E04AE0A9
:1022F00050E08AE99FE00E946497E7E5F2E084916C
:10230000882341F09091C00095FFFCCF8093C600D8
:102310003196F5CF8091C00085FFFCCF8AE0809395
:10232000C6000E9432636F2D70E0FB01EE0FFF1FAD
:10233000EC5EFD4F408151815E834D83452B09F456
:10234000A0C0FB01EF5EFD4F50815A832D813E817D
:102350002C5F3F4F81E090E089836A81861708F007
:1023600077C0DC01F901659174910196A9014C5F78
:102370005F4F061717070CF069C00297880F991F67
:10238000880F991FAC014E5F5F4F6D817E81460FB4
:10239000571FFA0165917491ED81FE818E0F9F1F89
:1023A000FC01A590B490FD01EE0FFF1FEE0FFF1F83
:1023B0003296AD81BE81EA0FFB1FE590F490FA01E1
:1023C000C590D490F90125903490FC012591349169
:1023D0003C832B83882777FD8095982F0E94FCAB48
:1023E0002B013C01B8016A197B09882777FD80958C
:1023F000982F0E94FCAB4B015C01B7016C197D0961
:10240000882777FD8095982F0E94FCAB9B01AC013B
:10241000C501B4010E942FAE6B017C01B1014B815B
:102420005C81641B750B882777FD8095982F0E942F
:10243000FCAB9B01AC01C701B6010E9461AB9B01E3
:10244000AC01C301B2010E9481AA06C09A0184CFE7
:1024500060E070E080E090E0A981BA81AB1329C010
:10246000ED81FE8124E0A29FE00DF11D1124329741
:1024700065917491882777FD8095982F0E94FCAB19
:1024800018C0B801882777FD8095982F0E94FCAB73
:1024900020E030E04AEF5EE30E942FAE20E030E023
:1024A00040E85DE30E942FAE20E030E0A9010E94E9
:1024B00081AA6B017C01C701B60126960FB6F8947C
:1024C000DEBF0FBECDBFDF91CF911F910F91FF9067
:1024D000EF90DF90CF90BF90AF909F908F907F90C4
:1024E0006F905F904F903F902F900895EF92FF92E2
:1024F0000F931F93CF9383ECE82E86E0F82E07EB23
:1025000016E0C0E06C2FF701819191917F010E944C
:102510004C11F80161937193819391938F01CF5F77
:10252000C33081F78091B5069091B6060E94AC1039
:102530006093B1067093B2068093B3069093B4068D
:102540006091AF067091B006882777FD8095982F2F
:102550000E94FCAB20E030E040E85DE30E942FAE3B
:102560006093A5067093A6068093A7069093A8068D
:102570006091AD067091AE06882777FD8095982F03
:102580000E94FCAB20E030E040E85DE30E942FAE0B
:1025900028E638EE4FE95BE30E942FAE20E030E002
:1025A00040E351E40E942FAE6093A1067093A2060F
:1025B0008093A3069093A4066091AB067091AC063D
:1025C000882777FD8095982F0E94FCAB20E030E0B3
:1025D00040E85DE30E942FAE28E638EE4FE95BE36A
:1025E0000E942FAE9B01AC010E9481AA60939D06C0
:1025F00070939E0680939F069093A0066091A90613
:102600007091AA06882777FD8095982F0E94FCABD1
:1026100020E030E040E85DE30E942FAE28E638EE8F
:102620004FE95BE30E942FAE24EB38EC46E450E424
:102630000E942FAE6093990670939A0680939B0632
:1026400090939C068FB7F894109295068FBFCF9108
:102650001F910F91FF90EF900895209134023091D7
:102660003502409136025091370260E070E08FE70A
:1026700093E40E9461ABE5E3F6E0608371838283BB
:10268000938364837583868397836087718782874A
:102690009387089597FF03C08091980604C0FC01BA
:1026A000E55DF94F808190E008952F923F924F921F
:1026B0005F926F927F928F929F92AF92BF92CF92D2
:1026C000DF92EF92FF920F931F93CF93DF93CDB7DB
:1026D000DEB7A4970FB6F894DEBF0FBECDBF8091D2
:1026E0009506882309F41DC20E9476128091380253
:1026F00090913902A0913A02B0913B02898F9A8F52
:10270000AB8FBC8F8091340290913502A09136023C
:10271000B09137028D8F9E8FAF8FB8A3809130021A
:1027200090913102A0913202B091330289A39AA311
:10273000ABA3BCA3A7EBB6E0BE8BAD8BEBECF6E096
:10274000FC8BEB8B8DE496E09E878D87ABE2B6E049
:10275000BE83AD83EAE1F2E0FC87EB878DE796E08C
:1027600098878F83A5E2B6E0B88FAF8BE2E3F6E0FF
:10277000FA83E98389E896E09C838B83A9E5B6E038
:10278000BA87A987212C312CED89FE8981909190FF
:10279000A190B190FE8BED8BAB89BC890D911D9101
:1027A000BC8BAB8BB801882777FD8095982F0E9452
:1027B000FCABA50194010E9480AA6B017C01ED8510
:1027C000FE856193719381939193FE87ED8720E05D
:1027D00030E040E251E40E945DAD18162CF4E1E0D7
:1027E000A981BA81EC93D9C020E030E040E251ECFD
:1027F000C701B6010E945AAB87FD02C0012B29F424
:10280000E1E0A981BA81EC93C4C0A981BA818C911D
:10281000882339F0EB81FC811082118212821382AD
:102820001C92A7019601698D7A8D8B8D9C8D0E94DB
:102830002FAE6F87788B898B9A8BF101EF58F94F08
:102840006083718382839383AB81BC812D913D91A1
:102850004D915C91C701B6010E9481AAD62EE72E48
:10286000F82E092FF101EF5BF94F10816180728022
:10287000C380212F362D472D5C2D0E945AAB87FD3A
:1028800016C0F101EB5CF94F108161807280C3804A
:10289000212F362D472D5C2D6D2D7E2D8F2D902FC8
:1028A0000E945DAD18161CF01D2D3701C02E812F22
:1028B000962DA72DBC2DEB81FC8180839183A28373
:1028C000B383212F362D472D5C2D6D8D7E8D8F8D01
:1028D00098A10E942FAE2B013C01F101EB59F94F59
:1028E0006083718382839383AF81B8852D913D91FD
:1028F0004D915C91C501B4010E9480AA9B01AC017D
:1029000069A17AA18BA19CA10E942FAE20ED3CEC85
:102910004CE45DE30E942FAE6B017C0123E333E3C3
:1029200043E75FE3E985FA85608171818281938164
:102930000E942FAE9B01AC01C701B6010E9481AA83
:102940006B017C01A985BA856D937D938D939C93D2
:102950001397A30192016F85788989899A890E94CA
:1029600081AAA70196010E9480AA6B017C0120E048
:1029700030E0A9010E945AAB87FD0BC020E030E097
:102980004FE753E4C701B6010E945DAD18162CF065
:102990000AC0C12CD12C760106C0C12CD12C9FE7D6
:1029A000E92E93E4F92EEF81F88580829182A2824C
:1029B000B382AF89B88D6D917D91B88FAF8B882729
:1029C00077FD8095982F0E94FCAB9B01AC01C5015F
:1029D000B4010E945DAD1816E4F4EB85FC856081BE
:1029E0007181882777FD8095982F0E94FCAB9B0111
:1029F000AC01C501B4010E945AAB87FF0AC0C701F0
:102A0000B6010E94C9AB75956795AD81BE816C9387
:102A100003C0ED81FE811082F4E02F0E311C8D8108
:102A20009E8101969E838D83AB85BC851296BC8763
:102A3000AB87EF81F8853496F887EF8389819A8197
:102A400001969A838983AB81BC811496BC83AB8346
:102A5000E985FA853496FA87E987FCE02F16310478
:102A600009F092CE0E9471A800912E0610912F06B7
:102A70002091300630913106DC01CB01801B910B97
:102A8000A20BB30B88389341A105B10508F449C0E6
:102A90000E9471A860932E0670932F0680933006D3
:102AA00090933106C090B106D090B206E090B30684
:102AB000F090B40620E030E040E751E4C701B601F1
:102AC0000E945DAD18161CF520E030E04CED52E49C
:102AD000C701B6010E945AAB87FF19C06091C906B1
:102AE0007091CA06882777FD8095982F0E94FCABCD
:102AF0009B01AC01C701B6010E945DAD87FD03C01B
:102B0000109298060EC08FE7809398060AC0109224
:102B100098069FB7F894809102018F7D80930201FF
:102B20009FBFA4960FB6F894DEBF0FBECDBFDF9156
:102B3000CF911F910F91FF90EF90DF90CF90BF90BA
:102B4000AF909F908F907F906F905F904F903F904D
:102B50002F9008950F931F93CF93DF93209134020A
:102B600030913502409136025091370260E070E0BA
:102B70008FE793E40E9461ABCAE1D2E0E1E4F6E0C2
:102B8000A5E3B6E020911A0230911B0229933993F4
:102B900011921192119211926D937D938D939D9349
:102BA00026E0ED34F20771F7249A249A249A809152
:102BB0000101806280930101809101018064809312
:102BC000010161E070E089E00E94E66387ED809397
:102BD0007A0010927E0010927D0080917D008062CC
:102BE00080937D0080917D00806280937D00809144
:102BF0007D00806480937D0080E888BD80916E00B8
:102C0000846080936E006AEF70E080E090E00E9444
:102C1000A2A88FE090E0909326068093250660E0BE
:102C200080912602909127020E944C1120E030E012
:102C300040E751E40E945AAB87FF0AC08091260208
:102C40009091270240979093270280932602E7CF26
:102C500084E091E090931B0280931A0260E08091DF
:102C60002002909121020E944C1120E030E042E8C5
:102C700053E40E945DAD181654F4809120029091A7
:102C8000210240969093210280932002E7CFC091C9
:102C90002306D09124068E01CE010E94AC106096CE
:102CA00020E030E04CED52E40E945DAD18169CF33C
:102CB0000093230610932406DF91CF911F910F916B
:102CC00008950895EBECF6E01182108213821282CF
:102CD000158214821092CA061092C906ABE2B6E0C1
:102CE0001C922C9811961C922C981092CA06109245
:102CF000C906109298069FB7F894E2E0F1E080814F
:102D00008F7D80839FBF08952F923F924F925F9255
:102D10006F927F928F929F92AF92BF92CF92DF92EB
:102D2000EF92FF920F931F93CF93DF93CDB7DEB750
:102D3000E3970FB6F894DEBF0FBECDBF6A8F7B8FCF
:102D40008C8F9D8F5BAB4AAB3CA72BA70E9471A8D1
:102D50006F8F78A389A39AA32AA93BA924303105B0
:102D60001CF4E0E1F3E017C0E3E2F3E08191882393
:102D700039F09091C00095FFFCCF8093C600F6CF4C
:102D80008091C00085FFFCCF35C29091C00095FFB7
:102D9000FCCF8093C60081918111F7CF8091C00054
:102DA00085FFFCCF8AE08093C6000E9462164AA984
:102DB0005BA98FE757FF03C08093980605C0EAA977
:102DC000FBA9E55DF94F80838F8D98A1A9A1BAA1D8
:102DD0008F87988BA98BBA8B8B879C87AD87BE8793
:102DE0001D8290E49F8BACE1A88FB6E4B98F1B8A5B
:102DF0001C8A1D8A1E8A2FE730E040E050E02983BC
:102E00003A834B835C837FE7472E512C612C712CD6
:102E10001DA21EA21FA218A631E03E8F1A86198697
:102E2000312C00E010E0212C4AA95BA9455D594FE7
:102E30005AA749A7E6E6F3E054915DA7E1E6F3E07F
:102E400084918EA7EAE5F3E094919FA7E3E5F3E090
:102E5000A491A8ABEDE4F3E0B491B9AB8AA99BA926
:102E6000880F991F880F991FFC01E954F94FFCA3A3
:102E7000EBA380919506882309F4E7C00E9476129F
:102E80002AA93BA937FF09C03090B1060091B206CC
:102E90001091B3062090B4060BC0ABA1BCA13C902E
:102EA00011960C91119712961C91129713962C90D3
:102EB000232D302F412F522D6B897C898D899E893E
:102EC0000E945DAD181624F03B8A0C8B1D8B2E8A58
:102ED000232D302F412F522D6D817F89888D998D23
:102EE0000E945AAB87FD04C03D820F8B188F298E3C
:102EF000BE8DBB2309F453C02A8D3B8D4C8D5D8D57
:102F0000632D702F812F922D0E945DAD18160CF04D
:102F10009CC00E9471A8DC01CB012F8538894989AA
:102F20005A89821B930BA40BB50B89389341A105D9
:102F3000B10508F48AC0D301C20129813A814B81CD
:102F40005C81821B930BA40BB50B4AA95BA9B595B9
:102F5000A7959795879557FF03C08093980603C060
:102F6000E9A5FAA580830E9471A86B877C878D876D
:102F70009E879B01AC018F859889A989BA89281BF6
:102F8000390B4A0B5B0B2DA33EA34FA358A79A8D79
:102F90009B8BAB8DAC8BBC8DBD8BED8DEE8B2A8D61
:102FA0003B8D4C8D5D8D632D702F812F922D0E9456
:102FB0005AAB87FFFCC20E9471A8DC01CB012B85B4
:102FC0003C854D855E85821B930BA40BB50B893820
:102FD0009341A105B10508F4EAC20E9471A86F8768
:102FE000788B898B9A8BDC01CB012B853C854D85B9
:102FF0005E85821B930BA40BB50B49855A8514166D
:1030000015060CF413C189819A81AB81BC81840DB2
:10301000951DA61DB71DEAA9FBA9B595A79597957E
:103020008795F7FFC0C28093980629853A852F5F60
:103030003F4F3A8729873A8D3D834B8D4F8B5C8D6F
:10304000588F8D8D898F91E09E8F20E030E040EA8F
:1030500051E46A8D7B8D8C8D9D8D0E9481AA9B0190
:10306000AC01632D702F812F922D0E945DAD18163B
:1030700094F4EDEFF2E08491882341F09091C00048
:1030800095FFFCCF8093C6003196F5CF8091C000AC
:1030900085FFFCCFAFC00E9471A8DC01CB012F8D52
:1030A00038A149A15AA1821B930BA40BB50B813DFA
:1030B0009740A105B10508F450C04AA95BA957FF84
:1030C00010C0E0909806F12CE7EFF2E0849188239D
:1030D000C9F09091C00095FFFCCF8093C600319657
:1030E000F5CFA9A5BAA5EC90F12CE1EFF2E084911F
:1030F000882341F09091C00095FFFCCF8093C600DB
:103100003196F5CF22E030E0432D502F612F722D04
:103110008AE99FE00E944C98EDEEF2E084918823CA
:1031200041F09091C00095FFFCCF8093C60031968E
:10313000F5CF4AE050E0B7018AE99FE00E9464972A
:103140008091C00085FFFCCF8AE08093C6000E947A
:1031500071A86F8F78A389A39AA30E9471A86B01AD
:103160007C010E9471A88B849C84AD84BE842F85D1
:10317000388949895A89820E931EA41EB51EC81823
:10318000D908EA08FB08C60ED71EE81EF91E31E86A
:10319000C3163FE4D30632E1E306F10490F0E0ED1C
:1031A000F2E08491882341F09091C00095FFFCCF1C
:1031B0008093C6003196F5CF8091C00085FFFCCF8B
:1031C00019C049855A858BA59CA5841795070CF0D5
:1031D00050CEE4E7F2E08491882341F09091C00062
:1031E00095FFFCCF8093C6003196F5CF8091C0004B
:1031F00085FFFCCF8AE08093C600E3960FB6F89473
:10320000DEBF0FBECDBFDF91CF911F910F91FF9019
:10321000EF90DF90CF90BF90AF909F908F907F9076
:103220006F905F904F903F902F9008958DA09EA03B
:10323000AFA0B8A4880E991EAA1EBB1E2DA13EA148
:103240004FA158A5281B390B4A0B5B0BCA01B901CA
:1032500029813A814B815C810E94FDAEA5019401D8
:103260000E944FAFD301C201820F931FA41FB51F4D
:1032700084319105A105B1050CF12C013D018C3E75
:103280009105A105B1052CF04BEE442E512C612C7B
:10329000712C40E84416510461047104ECF08EEF87
:1032A00090E0A0E0B0E09C01AD0124193509460989
:1032B000570929833A834B835C8312C034E1432E40
:1032C000512C612C712C84E190E0A0E0B0E0898366
:1032D0009A83AB83BC8304C049825A826B827C820E
:1032E0008DA5E6E6F3E0882349F09091C00095FFB4
:1032F000FCCF8093C60031968491F5CF2AE030E070
:10330000B301A2018AE99FE00E943D978EA5E1E604
:10331000F3E0882349F09091C00095FFFCCF8093A3
:10332000C60031968491F5CF2AE030E049815A8178
:103330006B817C818AE99FE00E943D978FA5EAE539
:10334000F3E0882349F09091C00095FFFCCF809373
:10335000C60031968491F5CF22E030E04D815F893F
:10336000688D798D8AE99FE00E944C9888A9E3E5F1
:10337000F3E0882349F09091C00095FFFCCF809343
:10338000C60031968491F5CF22E030E04B895C890C
:103390006D897E898AE99FE00E944C988091C000E7
:1033A00085FFFCCF8AE08093C600A985BA85139774
:1033B0000CF429CE69817A818B819C810E94FCABBF
:1033C00020E030E040E850E40E942FAE6B017C0129
:1033D0002D813F89488D598D6B897C898D899E8986
:1033E0000E9480AA20ED3FE049E450E40E942FAE05
:1033F00020E030E040E05FE30E942FAE9B01AC0193
:10340000C701B6010E9461AB6B017C01C501B4012B
:103410000E94FCAB20E030E04AE754E40E9461AB3C
:103420004B015C0189A9EDE4F3E0882349F0909118
:10343000C00095FFFCCF8093C60031968491F5CFF4
:1034400022E030E0B701A6018AE99FE00E944C9893
:10345000E7E4F3E08491882341F09091C00095FF68
:10346000FCCF8093C6003196F5CF22E030E0B50165
:10347000A4018AE99FE00E944C988091C00085FFDA
:10348000FCCF8AE08093C6002AE939E949E15FE38D
:10349000C701B6010E942FAE6B017C019B01AC01FC
:1034A0000E9481AAA50194010E9461AB6D837E8375
:1034B0008F839887A5019401C701B6010E942FAEA2
:1034C00020E030E040E05EE30E942FAE4B015C0163
:1034D000E9E3F3E08491882341F09091C00095FFE7
:1034E000FCCF8093C6003196F5CF8091C00085FF58
:1034F000FCCF8AE08093C600E3E3F3E08491882365
:1035000041F09091C00095FFFCCF8093C6003196AA
:10351000F5CF22E030E0B701A6018AE99FE00E94E2
:103520004C988091C00085FFFCCF8AE08093C60054
:10353000EDE2F3E08491882341F09091C00095FF83
:10354000FCCF8093C6003196F5CF22E030E04D816C
:103550005E816F8178858AE99FE00E944C98809116
:10356000C00085FFFCCF8AE08093C600E7E2F3E06D
:103570008491882341F09091C00095FFFCCF809307
:10358000C6003196F5CF22E030E0B501A4018AE90A
:103590009FE00E944C988091C00085FFFCCF8AE09C
:1035A0008093C60030CDE9A5FAA580833ECD1E8E5E
:1035B0004CCDCF93C82F0E9462160E94E363811105
:1035C00030C0EEE6F3E09491992341F08091C00081
:1035D00085FFFCCF9093C6003196F5CF6C2F70E03D
:1035E0004AE050E08AE99FE00E9464978091C00021
:1035F00085FFFCCF8AE08093C600EAE2F2E0849186
:10360000882341F09091C00095FFFCCF8093C600C5
:103610003196F5CF8091C00085FFFCCF8AE0809382
:10362000C6000E949163769A88E690E09093970690
:1036300080939606CF910895CF939091220F99236E
:1036400009F448C02091230F3091240F2330310515
:1036500009F440C0C82F0E9462160E94E3638111E2
:1036600030C0EEE6F3E08491882341F09091C000F1
:1036700095FFFCCF8093C6003196F5CF6C2F70E09C
:103680004AE050E08AE99FE00E9464978091C00080
:1036900085FFFCCF8AE08093C600EDEFF1E08491D6
:1036A000882341F09091C00095FFFCCF8093C60025
:1036B0003196F5CF8091C00085FFFCCF8AE08093E2
:1036C000C6000E949163769A87E690E090939706F1
:1036D00080939606CF9108959FB7F8948091020148
:1036E0008F7D809302019FBF0E94E363811121C0FF
:1036F000EEE6F3E08491882341F09091C00095FFBD
:10370000FCCF8093C6003196F5CFE3ECF1E08491D5
:10371000882341F09091C00095FFFCCF8093C600B4
:103720003196F5CF8091C00085FFFCCF8AE0809371
:10373000C6000E949163769A89E690E0909397067E
:103740008093960608951F920F920FB60F92112440
:103750000BB60F922F933F934F935F936F937F938B
:103760008F939F93AF93BF93EF93FF938091070243
:1037700081112EC080912B0680932106882311F0A1
:103780002C9A01C02C9880912C06809320068823C7
:1037900011F02C9A01C02C9880912D0680931F0661
:1037A000882311F02C9A01C02C9880919806809360
:1037B0001E069FB7882329F0F89480910201806249
:1037C00004C0F894809102018F7D809302019FBF15
:1037D0009091210680910702981708F42C989091F7
:1037E000200680910702981708F42C9890911F06E4
:1037F00080910702981708F42C9890911E068091EA
:103800000702981740F49FB7F894809102018F7DCA
:10381000809302019FBF809107028F5F8F77809313
:103820000702E09106028E2F90E08131910508F0A9
:1038300022C1FC01EE58FF4F0C946EAF88E08093DC
:103840007B0085E480937C0080917A008064809383
:103850007A0081E019C02091780030917900809140
:103860001A0690911B06A0911C06B0911D06820FAE
:10387000931FA11DB11D80931A0690931B06A09360
:103880001C06B0931D0682E080930602F4C088E017
:1038900080937B0086E480937C0080917A00806432
:1038A00080937A0083E0F0CF209178003091790006
:1038B0008091160690911706A0911806B0911906EE
:1038C000820F931FA11DB11D8093160690931706BA
:1038D000A0931806B093190684E0D6CF88E08093B1
:1038E0007B0085E480937C0080917A0080648093E3
:1038F0007A0085E0C9CF20917800309179008091DD
:10390000120690911306A0911406B0911506820F2D
:10391000931FA11DB11D8093120690931306A093CF
:103920001406B093150686E0AFCF87E0ADCF88E0F0
:1039300080930602809111068F5F809311069BC0D1
:1039400010927B0083E480937C0080917A008064F5
:1039500080937A0089E098CF2091780030917900A7
:1039600080910D0690910E06A0910F06B091100661
:10397000820F931FA11DB11D80930D0690930E061B
:10398000A0930F06B09310068AE07ECF88E0809364
:103990007B0081E480937C0080917A008064809336
:1039A0007A008BE071CF209178003091790080917E
:1039B000090690910A06A0910B06B0910C06820FA1
:1039C000931FA11DB11D8093090690930A06A09331
:1039D0000B06B0930C068CE057CF88E080937B00F9
:1039E00082E480937C0080917A00806480937A00E6
:1039F0008DE04ACF209178003091790080910506C2
:103A000090910606A0910706B0910806820F931FB9
:103A1000A11DB11D8093050690930606A09307068D
:103A2000B09308068EE030CF88E080937B0084E47A
:103A300080937C0080917A00806480937A008FE08C
:103A400023CF2091780030917900809101069091E8
:103A50000206A0910306B0910406820F931FA11DD8
:103A6000B11D8093010690930206A0930306B093C4
:103A700004061092060280911106803108F4F4C009
:103A800080919506811146C02091220690911206E0
:103A900080911306213011F49C0104C030911A0664
:103AA00020911B063093C3062093C4069093C5064D
:103AB0008093C6068091FD059091FE059093C806FF
:103AC0008093C70680911606909117069093B606CC
:103AD0008093B50680910D0690910E069093B006E6
:103AE0008093AF068091090690910A069093AE06E6
:103AF0008093AD0680910506909106069093AC06E2
:103B00008093AB0680910106909102069093AA06DD
:103B10008093A90681E08093950610921106109279
:103B20001A0610921B0610921C0610921D06109287
:103B30001206109213061092140610921506109297
:103B4000FD051092FE051092FF05109200061092DE
:103B50001606109217061092180610921906109267
:103B60000D0610920E0610920F061092100610927B
:103B7000090610920A0610920B0610920C0610927B
:103B8000050610920606109207061092080610927B
:103B9000010610920206109203061092040620916C
:103BA000C3063091C40680912002909121028217B1
:103BB00093071CF080E00E94D91A2091C30630912F
:103BC000C4068091260290912702281739071CF01D
:103BD00080E00E941C1B2091C5063091C606809192
:103BE000220290912302281739071CF081E00E94DD
:103BF000D91A2091C5063091C6068091280290916D
:103C00002902821793071CF081E00E941C1B20915F
:103C1000C7063091C806809124029091250228178A
:103C200039071CF082E00E94D91A2091C706309112
:103C3000C80680912A0290912B02821793071CF0EC
:103C400082E00E941C1B2091B5063091B60680913F
:103C50002306909124068217930734F01092CA0627
:103C60001092C9060E946C1BFF91EF91BF91AF911A
:103C70009F918F917F916F915F914F913F912F9184
:103C80000F900BBE0F900FBE0F901F9018952DEB4D
:103C900037E346E05EE30E942FAE08952DEB37E355
:103CA00046E05EE30E9461AB08952DEB37E346E00A
:103CB0005EE30E9461AB08952DEB37E346E05EE3DF
:103CC0000E942FAE08958091EA06811109C080916B
:103CD000E906811105C08091E806811101C00895AF
:103CE000E0E4FEE08491882341F09091C00095FFCC
:103CF000FCCF8093C6003196F5CFE1E3F6E08491E6
:103D0000882341F09091C00095FFFCCF8093C600BE
:103D10003196F5CF8091EA068823D1F06091EB06C9
:103D20007091EC068091ED069091EE060E94FCAB3E
:103D30002091540C3091550C4091560C5091570CD9
:103D40000E9461ABAB01BC018DE296E00E9403537F
:103D50008091E9068823D1F06091EF067091F0061A
:103D60008091F1069091F2060E94FCAB2091580CD4
:103D70003091590C40915A0C50915B0C0E9461ABF0
:103D8000AB01BC0189E296E00E9403538091E806F2
:103D90008823D1F06091F3067091F4068091F506C6
:103DA0009091F6060E94FCAB20915C0C30915D0C6A
:103DB00040915E0C50915F0C0E9461ABAB01BC0165
:103DC00085E296E00E9403538091C00085FFFCCFFE
:103DD0008AE08093C6001092EA061092E9061092DB
:103DE000E80608951092EA061092E9061092E80695
:103DF0000895809341020895809340020895EFE66C
:103E0000F0E080818260808308951F920F920FB648
:103E10000F9211240BB60F92CF92DF92EF92FF9286
:103E20000F931F932F933F934F935F936F937F93C2
:103E30008F939F93AF93BF93EF93FF93E0911B07F3
:103E4000F0911C07309709F08AC190912207809168
:103E50002107981769F0E09121070DE4E09FF00138
:103E60001124ED5DF84FDF01A45BBF4F81E08C931F
:103E7000F0931C07E0931B07309709F46AC1DF0138
:103E8000A45BBF4F81E08C931092FE061092FF0658
:103E9000109200071092010760AD71AD61341CE90A
:103EA000710728F461322EE4720748F002C060E422
:103EB0007CE9769567957695679584E007C06131D2
:103EC00037E2730730F07695679582E08093FB06C2
:103ED00007C08093FB066032710510F460E270E069
:103EE00060527109611548E07407E8F0E72FFF2779
:103EF000EE0FFF1FEE0FFF1FCF01805C954FFC01FF
:103F0000329645915491AA27659F9001649F210D97
:103F10003A1F06942A1F3A1F1124FC01859194919F
:103F2000821B930B20C0CB01969587958C7F805C7C
:103F3000994FFC0125913491FC013296A591B491E1
:103F4000AB0147705527A49FC001A59F900DB49F5A
:103F5000900D112443E0969587954A95E1F78901E4
:103F6000081B190BC80184369105A0F4EDE4F3E0B9
:103F70008191882339F09091C00095FFFCCF809308
:103F8000C600F6CF4AE050E08AE99FE00E94AC9775
:103F900084E690E09093FA068093F9068091FB0600
:103FA000992787FD90959093F8068093F706E09106
:103FB0001B07F0911C0764AD75AD7093FD0660930F
:103FC000FC0661341CE9710728F461322EE47207A3
:103FD00048F002C060E47CE9769567957695679530
:103FE00084E007C0613137E2730730F0769567955A
:103FF00082E08093FB0608C081E08093FB0660327C
:10400000710510F460E270E060527109611548E0DA
:104010007407E8F0E72FFF27EE0FFF1FEE0FFF1FDB
:10402000CF01805C954FFC01329645915491AA27AF
:10403000659F9001649F210D3A1F06942A1F3A1F25
:104040001124FC0185919491821B930B20C0CB011C
:10405000969587958C7F805C994FFC0125913491D2
:10406000FC013296A591B491AB0147705527A49FEE
:10407000C001A59F900DB49F900D112443E096952B
:1040800087954A95E1F78901081B190BC801843609
:104090009105A0F4EDE4F3E08191882339F090914B
:1040A000C00095FFFCCF8093C600F6CF4AE050E0F9
:1040B0008AE99FE00E94AC9784E690E0AC0160E062
:1040C00070E04093020750930307609304077093D6
:1040D00005079093890080938800E0911B07F09179
:1040E0001C0780899189A289B389B695A795979570
:1040F0008795B095A095909581959F4FAF4FBF4FF5
:104100008093160790931707A0931807B093190789
:104110008093120790931307A0931407B093150789
:1041200080930E0790930F07A0931007B093110789
:1041300080930A0790930B07A0930C07B0930D0789
:1041400010920607109207071092080710920907AD
:1041500006C080ED97E09093890080938800E091FD
:104160001B07F0911C07309709F4FDC580A18093CF
:104170001A0780FF03C089988FEF02C0899A81E0F7
:1041800080933C0280911A0781FF03C08F988FEFC4
:1041900002C08F9A81E080933D0280911A07482FD8
:1041A0004170282F237090914102233009F03EC0C6
:1041B000992309F47BC02CB124FB332730F92091DB
:1041C000610F232781F13091E706332361F1E091FC
:1041D0001B07F0911C074081518162817381141685
:1041E000150616061706FCF44091D1065091D2062A
:1041F0006091D3067091D4064093EB065093EC0681
:104200006093ED067093EE0631E03093EA06408944
:104210005189628973894093060750930707609319
:104220000807709309072093E70640C0992309F413
:1042300096C52CB125FB332730F92091600F232739
:1042400081F13091E606332361F1E0911B07F09193
:104250001C07C080D180E280F3801C141D041E0462
:104260001F04FCF4C090D106D090D206E090D30693
:10427000F090D406C092EB06D092EC06E092ED06E8
:10428000F092EE0631E03093EA06C088D188E288E9
:10429000F388C0920607D0920707E0920807F092D1
:1042A00009072093E606442309F43FC081FD3DC081
:1042B000992309F477C09091030191702091AC0289
:1042C000922781F12091E506222361F1E0911B07FD
:1042D000F0911C074481558166817781141615067B
:1042E00016061706FCF44091D5065091D60660914B
:1042F000D7067091D8064093EF065093F00660936E
:10430000F1067093F20621E02093E9064089518975
:1043100062897389409306075093070760930807E3
:10432000709309079093E5063DC09923D9F19091C8
:10433000030191FB222720F99091AA02922781F193
:104340002091E406222361F1E0911B07F0911C0704
:104350004481558166817781141615061606170665
:10436000FCF44091D5065091D6066091D706709125
:10437000D8064093EF065093F0066093F1067093D1
:10438000F20621E02093E906408951896289738908
:104390004093060750930707609308077093090737
:1043A0009093E4069FB782FF87C0F89480910B0139
:1043B000826080930B019FBF8FEF80933E028091BC
:1043C0004102E0911B07F0911C078823B1F189B1EC
:1043D00082FB992790F98091AB02892761F1909136
:1043E000E306992341F14085518562857385141652
:1043F000150616061706FCF44091D9065091DA0608
:104400006091DB067091DC064093F3065093F4064E
:104410006093F5067093F60691E09093E806408964
:104420005189628973894093060750930707609307
:104430000807709309078093E30680914002882360
:1044400009F481C08091320D882309F47CC082B3C5
:1044500091E083FB882780F9892759F12091E106B3
:10446000222339F14085518562857385141615061E
:1044700016061706F4F44091D9065091DA066091B9
:10448000DB067091DC064093F3065093F4066093CC
:10449000F5067093F6069093E80640895189628983
:1044A000738940930607509307076093080770933A
:1044B00009078093E10647C0F89480910B018D7F36
:1044C00080930B019FBF21E020933E028091410227
:1044D0008823C9F189B183FB992790F98091A902BA
:1044E000892779F19091E206992359F1E0911B0710
:1044F000F0911C0740855185628573851416150659
:1045000016061706F4F44091D9065091DA06609128
:10451000DB067091DC064093F3065093F40660933B
:10452000F5067093F6062093E80640895189628962
:1045300073894093060750930707609308077093A9
:1045400009078093E20680911A07E0911B07F0911A
:104550001C0783FF0CC081A1823011F4589805C05C
:10456000813011F4439801C0169A8FEF0BC081A1DE
:10457000823011F4589A05C0813011F4439A01C079
:10458000169881E080933F0220E08091FB06281777
:104590000CF0CFC18091C00087FF19C03091C600D8
:1045A00040911B1050911C10CA0101968F779927DA
:1045B00060911D1070911E108617970741F0FA0147
:1045C000E556F04F308390931C1080931B10E091C0
:1045D0001B07F0911C074091160750911707609137
:1045E00018077091190780819181A281B381840F8E
:1045F000951FA61FB71F8093160790931707A093C8
:104600001807B0931907181619061A061B06CCF5D9
:10461000889AE0911B07F0911C07809116079091F2
:104620001707A0911807B09119074089518962892D
:104630007389841B950BA60BB70B80931607909379
:104640001707A0931807B093190780913C02409177
:10465000D1065091D2066091D3067091D406992765
:1046600087FD9095A92FB92F840F951FA61FB71FFF
:104670008093D1069093D206A093D306B093D4062C
:104680008898E0911B07F0911C0740911207509108
:104690001307609114077091150784819581A68195
:1046A000B781840F951FA61FB71F809312079093A1
:1046B0001307A0931407B0931507181619061A06C6
:1046C0001B06CCF58E9AE0911B07F0911C07809198
:1046D000120790911307A0911407B0911507408914
:1046E000518962897389841B950BA60BB70B809344
:1046F000120790931307A0931407B09315078091A6
:104700003D024091D5065091D6066091D706709132
:10471000D806992787FD9095A92FB92F840F951F4B
:10472000A61FB71F8093D5069093D606A093D706F1
:10473000B093D8068E98E0911B07F0911C0740912A
:104740000E0750910F076091100770911107808537
:104750009185A285B385840F951FA61FB71F8093EF
:104760000E0790930F07A0931007B0931107181628
:1047700019061A061B060CF047C09FB7F8948091E3
:104780000B01886080930B019FBFE0911B07F091A4
:104790001C0780910E0790910F07A0911007B09110
:1047A00011074089518962897389841B950BA60B77
:1047B000B70B80930E0790930F07A0931007B09349
:1047C000110780913E024091D9065091DA0660911E
:1047D000DB067091DC06992787FD9095A92FB92FEC
:1047E000840F951FA61FB71F8093D9069093DA06F2
:1047F000A093DB06B093DC069FB7F89480910B0181
:10480000877F80930B019FBFE0911B07F0911C07EE
:1048100040910A0750910B0760910C0770910D07AA
:1048200084859585A685B785840F951FA61FB71F1C
:1048300080930A0790930B07A0930C07B0930D0782
:10484000181619061A061B060CF04BC081A18230FF
:1048500011F4599A05C0813011F4419A01C0149A9B
:10486000E0911B07F0911C0780910A0790910B07BC
:10487000A0910C07B0910D07408951896289738915
:10488000841B950BA60BB70B80930A0790930B071D
:10489000A0930C07B0930D0780913F024091DD0675
:1048A0005091DE066091DF067091E006992787FD42
:1048B0009095A92FB92F840F951FA61FB71F80931E
:1048C000DD069093DE06A093DF06B093E00681A19B
:1048D000823011F4599805C0813011F4419801C01B
:1048E00014988091060790910707A0910807B0914E
:1048F00009070196A11DB11D809306079093070734
:10490000A0930807B0930907409106075091070745
:104910006091080770910907E0911B07F0911C074F
:1049200080899189A289B389481759076A077B074B
:10493000B0F0409106075091070760910807709109
:104940000907E0911B07F0911C0784899589A689C6
:10495000B78984179507A607B70718F4DFC02F5F3C
:1049600014CE4091020750910307609104077091A3
:104970000507048D158D268D378DAA27419FB12DF2
:10498000529FC001629F900D619F800D911D429FBB
:10499000B00D811D9A1F519FB00D811D9A1F609F00
:1049A000B00D811D9A1F509FB10D8A1F9A1FB69599
:1049B0008A1F9A1F112424AD35AD820F931F909347
:1049C000FD068093FC0640AD51AD62AD73ADA0E035
:1049D000B0E0481759076A077B0720F45093FD069B
:1049E0004093FC066091FC067091FD0661341CE961
:1049F000710728F461322EE4720748F002C060E4C7
:104A00007CE9769567957695679584E007C0613176
:104A100037E2730730F07695679582E08093FB0666
:104A200008C081E08093FB066032710510F460E2FB
:104A300070E060527109611548E07407E8F0E72FF3
:104A4000FF27EE0FFF1FEE0FFF1FCF01805C954F7A
:104A5000FC01329645915491AA27659F9001649F6D
:104A6000210D3A1F06942A1F3A1F1124FC0185913B
:104A70009491821B930B20C0CB01969587958C7FD8
:104A8000805C994FFC0125913491FC013296A591EF
:104A9000B491AB0147705527A49FC001A59F900D0D
:104AA000B49F900D112443E0969587954A95E1F7C0
:104AB0008901081B190BC80184369105A0F4EDE4A7
:104AC000F3E08191882339F09091C00095FFFCCFED
:104AD0008093C600F6CF4AE050E08AE99FE00E944A
:104AE000AC9784E690E09093890080938800409191
:104AF00002075091030760910407709105078A012E
:104B00009B01080F191F211D311D009302071093EF
:104B100003072093040730930507FBC04091060765
:104B2000509107076091080770910907808D918D5A
:104B3000A28DB38D84179507A607B70708F0DDC0CF
:104B40004091FE065091FF066091000770910107A9
:104B5000048D158D268D378DAA27419FB12D529F2B
:104B6000C001629F900D619F800D911D429FB00D0D
:104B7000811D9A1F519FB00D811D9A1F609FB00D1E
:104B8000811D9A1F509FB10D8A1F9A1FB6958A1FCB
:104B90009A1F11246091FC067091FD06E05CFF4FA6
:104BA0006817790718F46081718102C0681B790B5E
:104BB00080819181A281B3818B0120E030E00817D0
:104BC00019072A073B0708F4BC0161341CE9710787
:104BD00028F461322EE4720748F002C060E47CE9F8
:104BE000769567957695679584E007C0613137E2E1
:104BF000730730F07695679582E08093FB0608C0D6
:104C000081E08093FB066032710510F460E270E091
:104C100060527109611548E07407E8F0E72FFF273B
:104C2000EE0FFF1FEE0FFF1FCF01805C954FFC01C1
:104C3000329645915491AA27659F9001649F210D5A
:104C40003A1F06942A1F3A1F1124FC018591949162
:104C5000821B930B20C0CB01969587958C7F805C3F
:104C6000994FFC0125913491FC013296A591B491A4
:104C7000AB0147705527A49FC001A59F900DB49F1D
:104C8000900D112443E0969587954A95E1F78901A7
:104C9000081B190BC80184369105A0F4EDE4F3E07C
:104CA0008191882339F09091C00095FFFCCF8093CB
:104CB000C600F6CF4AE050E08AE99FE00E94AC9738
:104CC00084E690E090938900809388004091FE06EE
:104CD0005091FF0660910007709101078A019B01C6
:104CE000080F191F211D311D0093FE061093FF06AA
:104CF00020930007309301070CC08091F906909132
:104D0000FA0690938900809388008091F70680933B
:104D1000FB064091060750910707609108077091C4
:104D20000907E0911B07F0911C0780899189A289EE
:104D3000B389481759076A077B07A8F010921C0728
:104D400010921B079091220780912107981759F024
:104D5000809121078F5F8F708093210704C04423C7
:104D600009F420CBA3CAFF91EF91BF91AF919F911E
:104D70008F917F916F915F914F913F912F911F91F3
:104D80000F91FF90EF90DF90CF900F900BBE0F90A0
:104D90000FBE0F901F901895CF93DF93819A879A3B
:104DA000AAE0B1E08C9182608C930E9A3B9A509A63
:104DB000579A5F9A829A8A9AE7E0F1E0808181604F
:104DC00080839FB7F894E8E0F1E080818160808380
:104DD0009FBF0A9A129A3F9A479A0A9A129A6C9817
:104DE000C4E0D1E088818E7F888352986D98888155
:104DF0008D7F88835398809A88985F9AC7E6DFE012
:104E00001882869A8E988A9A19828C9188608C93DF
:104E10009FB7F894ABE0B1E08C91877F8C939FBFF4
:104E20009FB7F8948081816080839FBF1A820C9A1B
:104E30001498129A399A4198479A519A5998129A05
:104E4000A1E8B0E08C918F7E8C938C9188608C93DC
:104E5000E0E8F0E080818D7F808380818E7F808399
:104E600080818F73808380818F7C80838C91887F09
:104E700082608C9380E090E4909389008093880016
:104E80001092850010928400EFE6F0E0808182604D
:104E9000808381E0809341027894DF91CF910895DF
:104EA0009091220780912107981729F00E945513AD
:104EB0000E942962F5CF0895CF92DF92EF92FF9280
:104EC000FC019FB7F894C080D180E280F380E1EDCF
:104ED000F6E0C082D182E282F382DB01CD90DD90E8
:104EE000ED90FC90C482D582E682F782DA014D9182
:104EF0005D916D917C914087518762877387D9015D
:104F00004D915D916D917C91448755876687778738
:104F10009FBFFF90EF90DF90CF900895FC019FB767
:104F2000F89440815181628173814093DD065093F2
:104F3000DE066093DF067093E0069FBF08952FB7EB
:104F4000F89494E0899FF0011124EF52F94F6081A9
:104F50007181828193812FBF0895CF93C82F0E94C2
:104F60009F270E94FCAB24E0C29FF0011124EC5A61
:104F7000F34F20813181428153810E9461ABCF91F7
:104F800008950E9450275F9AE7E6FFE010828A9A10
:104F900011829FB7F894A8E0B1E08C9181608C9366
:104FA0009FBF1282129A479A129A089580916F00B9
:104FB0008D7F80936F009091220780912107981731
:104FC00069F090912207809121079817A1F38091B1
:104FD00021078F5F8F7080932107EDCF10921C0700
:104FE00010921B0780916F00826080936F0008957C
:104FF000CF92DF92EF92FF920F931F93CF93DF93A5
:105000008C01EB01FA0163E070E00E9419AF9C0192
:10501000181619061CF5488159816A817B81C08068
:10502000D180E280F380C882D982EA82FB82408309
:105030005183628373838230910581F44C815D8159
:105040006E817F81C480D580E680F780CC82DD824E
:10505000EE82FF824483558366837783220F331F5A
:10506000220F331FDE01A20FB31FE20FF31F8017C1
:105070009107F4F54D915D916D917C911397C080EE
:10508000D180E280F380CD92DD92ED92FC92139775
:10509000408351836283738314964D915D916D912A
:1050A0007C911797C480D580E680F7801496CD92C6
:1050B000DD92ED92FC921797448355836683778344
:1050C00018964D915D916D917C911B97C084D18410
:1050D000E284F3841896CD92DD92ED92FC921B97B8
:1050E000408751876287738703961C963C96BFCF93
:1050F000DF91CF911F910F91FF90EF90DF90CF90B4
:1051000008952F923F924F925F926F927F928F926B
:105110009F92AF92BF92CF92DF92EF92FF920F9346
:105120001F93CF93DF9300D000D000D0CDB7DEB770
:105130005C017C836B834A01FA01C080D180E280EC
:10514000F38020E030E0A901C701B6010E945DAD07
:1051500087FF04C0F7FAF094F7F8F094C501880FC0
:10516000991F880F991F9A838983212C312C8B8159
:105170009C81281639060CF040C000E010E01E8229
:105180001D828D819E818A159B057CF5F401E00FBF
:10519000F11F408051806280738020E030E0A901DF
:1051A000C301B2010E945DADA301920187FD505879
:1051B000C701B6010E945AAB87FF0FC020E030E064
:1051C000A901C301B2010E945DAD7301620187FFB5
:1051D00004C0F7FAF094F7F8F094ED81FE8131966F
:1051E000FE83ED830C5F1F4FCCCF9FEF291A390A46
:1051F000E981FA818E0E9F1EBACFC701B6012696AD
:105200000FB6F894DEBF0FBECDBFDF91CF911F91D7
:105210000F91FF90EF90DF90CF90BF90AF909F9055
:105220008F907F906F905F904F903F902F90089558
:105230004F925F926F927F928F929F92AF92BF92A6
:10524000CF92DF92EF92FF920F931F93CF93DF9352
:10525000EC017B016A01C69FC001C79F900DD69FDC
:10526000900D1124880F991F880F991F0E94A5AFD8
:105270005E01AA0CBB1CAA0CBB1CA0E0B0E0812CF8
:10528000912C8E149F0424F540E050E000E010E0E3
:105290000C171D07BCF49A012A0F3B1FBC01620FBB
:1052A000731F2C0D3D1DF901408051806280738079
:1052B000FB0140825182628273820F5F1F4F4C5FFD
:1052C0005F4FE6CFFFEF8F1A9F0AAA0DBB1DD9CF04
:1052D000DF91CF911F910F91FF90EF90DF90CF90D2
:1052E000BF90AF909F908F907F906F905F904F9006
:1052F00008952F923F924F925F926F927F928F927A
:105300009F92AF92BF92CF92DF92EF92FF920F9354
:105310001F93CF93DF9300D000D0CDB7DEB7181620
:1053200019060CF020C1470119012A013B015C015B
:1053300020E030E0A901C301B2010E945AAB8823EA
:1053400009F411C10130110529F421E0C216D1047C
:1053500079F46CC017FF0CC021E030E02A193B093A
:10536000209FC001219F900D309F900D112402C0FD
:1053700080E090E0D7FE0CC021E030E02A193B0924
:105380002C9DA0012D9D500D3C9D500D112402C05F
:1053900040E050E0F601EE0FFF1FEE0FFF1FFA8313
:1053A000E983440F551F440F551F9A01280D391DDD
:1053B0003C832B834801880C991C880C991C6C0138
:1053C000CC0CDD1CCC0CDD1C00E010E0E12CF12C41
:1053D000F801EC0DFD1DE20DF31D208131814281AC
:1053E0005381C301B2010E942FAE9B01AC01EB813E
:1053F000FC8160817181828193810E9481AAEB810D
:10540000FC816083718382839383FFEFEF1AFF0A2D
:105410002B813C8189819A81280F391F3C832B8302
:10542000080D191DEA14FB0499F69DC0750193E05F
:10543000E922FF2461019A82898200E010E00E15C2
:105440001F05F9F0F60121913191419151916F01C0
:10545000C301B2010E942FAE9B01AC01E981FA8128
:1054600060817181828193810E9481AAE981FA81A0
:105470006193719381939193FA83E9830F5F1F4F37
:10548000DECF8701000F111F000F111F800E911E2C
:10549000020D131DEA14FB040CF065C0F801208115
:1054A000318142815381C301B2010E942FAE9B0121
:1054B000AC01F40160817181828193810E9481AA93
:1054C000F4016083718382839383F80124813581A1
:1054D00046815781C301B2010E942FAE9B01AC01EE
:1054E000F40164817581868197810E9481AAF4010B
:1054F0006483758386839783F8012085318542858F
:105500005385C301B2010E942FAE9B01AC01F4018F
:1055100060857185828593850E9481AAF4016087E8
:10552000718782879387F80124853585468557855D
:10553000C301B2010E942FAE9B01AC01F40164854E
:105540007585868597850E9481AAF4016487758791
:1055500086879787F4E0EF0EF11C20E1820E911C04
:10556000005F1F4F97CF0F900F900F900F90DF911C
:10557000CF911F910F91FF90EF90DF90CF90BF9050
:10558000AF909F908F907F906F905F904F903F90E3
:105590002F9008952F923F924F925F926F927F9239
:1055A0008F929F92AF92BF92CF92DF92EF92FF9233
:1055B0000F931F93CF93DF93CDB7DEB728970FB626
:1055C000F894DEBF0FBECDBF181619060CF02BC124
:1055D0003A8329831B014C014130510521F40130EC
:1055E000110579F473C057FF0CC081E090E0881971
:1055F0009909849F6001859FD00C949FD00C112441
:1056000002C0C12CD12C17FF0CC081E090E088199A
:105610009909809F5001819FB00C909FB00C11247C
:1056200002C0A12CB12C9A01220F331F220F331F6D
:105630003E832D83C801880F991F880F991F9C8373
:105640008B83CC0CDD1CCC0CDD1CAA0CBB1CAA0C67
:10565000BB1C18861F8200E010E0E12CF12C412CCD
:10566000512C3201F801EC0DFD1DBF01620D731DBF
:10567000AF81B885AA0DBB1DE981FA81AE0FBF1FAE
:105680002D913D914D915C91FB01608171818281F1
:1056900093810E942FAE9B01AC01C301B2010E9415
:1056A00081AA2B013C01FFEFEF1AFF0A2D813E81F9
:1056B000020F131F8F819885EB81FC818E0F9F1F36
:1056C00098878F83E814F90469F6B0C065E070E04C
:1056D0000E9419AF7C018C016101A980BA801C82F3
:1056E0001B82412C512C32018B819C818E159F0590
:1056F000E9F0F60161917191819191916F01F5014C
:1057000021913191419151915F010E942FAE9B01F6
:10571000AC01C301B2010E9481AA2B013C012B8183
:105720003C812F5F3F4F3C832B83DECF9C01220FB8
:10573000331F220F331F7101E20EF31EC980DA807E
:10574000C20ED31E081519050CF070C0F601208199
:10575000318142815381F70160817181828193811E
:105760000E942FAE9B01AC01C301B2010E9481AA2D
:105770002B013C01F6012481358146815781F701D7
:1057800064817581868197810E942FAE9B01AC0157
:10579000C301B2010E9481AA2B013C01F6012085C0
:1057A000318542855385F7016085718582859385B2
:1057B0000E942FAE9B01AC01C301B2010E9481AADD
:1057C0002B013C01F6012485358546855785F70177
:1057D00064857585868597850E942FAE9B01AC01F7
:1057E000C301B2010E9481AA2B013C01F60120896C
:1057F000318942895389F701608971898289938946
:105800000E942FAE9B01AC01C301B2010E9481AA8C
:105810002B013C010B5F1F4FF4E1EF0EF11C24E163
:10582000C20ED11C8FCF412C512C3201C301B201C9
:1058300028960FB6F894DEBF0FBECDBFDF91CF9193
:105840001F910F91FF90EF90DF90CF90BF90AF909E
:105850009F908F907F906F905F904F903F902F9090
:1058600008952F923F924F925F926F927F928F9204
:105870009F92AF92BF92CF92DF92EF92FF920F93DF
:105880001F93CF93DF9300D000D0CDB7DEB71816AB
:1058900019060CF09EC0141615060CF09AC01C01D7
:1058A000019799F4FB01C080D180E280F38020E071
:1058B00030E0A901C701B6010E945DAD87FF8CC031
:1058C000F7FAF094F7F8F09487C09A01220F331F8B
:1058D000220F331F3A8329837C836B83812C912C85
:1058E00090E8A92E9FE3B92E412C512C612C712CEC
:1058F00000E010E0EB81FC81C080D180E280F38089
:1059000020E030E0A901C701B6010E945AAB88230C
:1059100009F444C020E030E0A901C701B6010E94AB
:105920005DAD87FF04C0F7FAF094F7F8F094A70193
:105930009601B201C3010E945AAB87FF1DC0A701A7
:105940009601B201C3010E9461AB2B013C019B0196
:10595000AC01C501B4010E942FAEA30192010E94C7
:105960002FAE20E030E040E85FE30E9481AA4B01C7
:105970005C012601370112C09201A301C701B601E3
:105980000E9461AB9B01AC010E942FAE9B01AC0158
:10599000C501B4010E9481AA4B015C010F5F1F4F3A
:1059A0002B813C8189819A81280F391F3C832B836D
:1059B0000215130509F09ECFC501B4010E949CAEEB
:1059C0009B01AC01B201C3010E942FAE6B017C01AF
:1059D00003C0C12CD12C7601C701B6010F900F90E6
:1059E0000F900F90DF91CF911F910F91FF90EF904B
:1059F000DF90CF90BF90AF909F908F907F906F90EF
:105A00005F904F903F902F9008952F923F924F922A
:105A10005F926F927F928F929F92AF92BF92CF923E
:105A2000DF92EF92FF920F931F93CF93DF93CDB747
:105A3000DEB7E0970FB6F894DEBF0FBECDBF9A8BEE
:105A4000898B1B015A87498739011E8F0D8FDC8E88
:105A5000CB8E2501998E888E2B962EAD3FAD2B9740
:105A6000C901815F984D41E08F319E4408F440E0C8
:105A7000C90160E177E20E9419AF61E06983892B77
:105A800009F41982C90168EE73E00E9419AF8D59BB
:105A90009F4F71E07D83873C910508F41D82C90109
:105AA00064E670E00E9419AF0996A1E0AF8B4397BE
:105AB00008F41F8AC9016AE070E00E9419AFB1E0E2
:105AC000BA8F892B09F41A8EE985FA853197F88700
:105AD000EF836E167F0614F478866F822F813885E7
