:100000000C94D50C0C94FF0C0C94FF0C0C94FF0C6E
:100010000C94FF0C0C94FF0C0C94FF0C0C94FF0C34
:100020000C94FF0C0C944E970C944E970C944E9796
:100030000C94FF0C0C94FF0C0C94FF0C0C94FF0C14
:100040000C94FF0C0C940E7C0C94FF0C0C94FF0C85
:100050000C94FF0C0C94FF0C0C949F5B0C94049B71
:100060000C94FF0C0C940E670C94FF0C0C94FF0C7A
:100070000C94FF0C0C94FF0C0C94FF0C0C94FF0CD4
:100080000C940F960C94FF0C0C94FF0C0C94FF0C2A
:100090000C94FF0C0C94FF0C0C94FF0C0C94E29746
:1000A0000C94FF0C0C94FF0C0C94E1950C94FF0C39
:1000B0000C94FF0C0C94FF0C0C94FF0C0C94B39557
:1000C0000C94FF0C0C94FF0C0C94FF0C0C94FF0C84
:1000D0000C94FF0C0C94FF0C0C94FF0C0C94FF0C74
:1000E0000C94FF0CC455C455CF55CF55CF55DA5598
:1000F000DA55DA55EF55E555E555E555FE5B0B5CF0
:10010000275C345C4E5C505C525C545C5D5C695CAA
:10011000835C905CAA5CB75CD15CDE5CF65C139798
:100120001697059709970F974D971A971E9724973B
:1001300028972C97329736973A974D974097449740
:100140004897F999FE99039A0D9A179A909A219ACD
:10015000299A319A3B9A459A4F9A5E9A689A909A50
:10016000729A7C9A869A084AD73B3BCE016E84BC31
:10017000BFFDC12F3D6C74319ABD56833DDA3D0001
:10018000C77F11BED9E4BB4C3E916BAAAABE00004A
:1001900000803F05A84CCDB2D44EB93836A9020C28
:1001A00050B9918688083CA6AAAA2ABE0000008001
:1001B0003F00300C9600B016780010265A00C02D73
:1001C0004B0050324100D0373200603C1E00403EB0
:1001D0000F00303F00001000AA03F0013A01900226
:1001E000220130031001D00302017004F700100552
:1001F000ED00B005E5005006DD00F006D7009007E1
:10020000D1003008CC00D008C7007009C300100A24
:10021000BE00B00ABB00500BB700F00BB300900C4F
:10022000B000D00DAA00100FA5005010A000901132
:100230009B00D0129600B014900090168B0070189E
:100240008500501A8000301C7B00B01E75003021E4
:100250006F00B02369003026640010285F00902AE8
:100260005A00702C5500F02E4F0070314800B0320B
:100270004500F033410070363900103737005038F0
:10028000330090392D00D03A2700B03C1C00503D7F
:100290001700F03D1100903E0900D03FE5FF0A0035
:1002A000207A3A200020793A200020783A20004233
:1002B0006564000A00207A3A200020793A20002064
:1002C000783A2000504944204175746F74756E650A
:1002D0002066696E697368656421205075742074A6
:1002E0006865206C617374204B702C204B69206111
:1002F0006E64204B6420636F6E7374616E74732040
:1003000066726F6D2061626F766520696E746F2012
:10031000436F6E66696775726174696F6E2E6800EF
:10032000504944204175746F74756E65206661692B
:100330006C6564212074696D656F75740020403AA6
:10034000006F6B20543A006F6B20423A00504944D2
:10035000204175746F74756E65206661696C6564A3
:10036000212054656D706572617475726520746FBB
:100370006F206869676800204B643A2000204B6951
:100380003A2000204B703A200020436C617373695F
:10039000632050494420002054753A2000204B75BA
:1003A0003A2000206D61783A2000206D696E3A2075
:1003B0000020643A200020626961733A2000204DD9
:1003C000373933205300496E7374616C6C65642057
:1003D000686561642049443A005A2050726F626532
:1003E000204C656E6774683A2000536572766F2002
:1003F000456E6473746F702073657474696E67738F
:100400003A002044002049002020204D3330312084
:1004100050005049442073657474696E67733A00E4
:10042000205A0020590020204D32303620580048F4
:100430006F6D65206F666673657420286D6D293A4F
:1004400000204500205A002058002042002054007F
:1004500020204D323035205300416476616E636553
:1004600064207661726961626C65733A20533D4D18
:10047000696E20666565647261746520286D6D2FF4
:1004800073292C20543D4D696E2074726176656C21
:1004900020666565647261746520286D6D2F73290F
:1004A0002C20423D6D696E696D756D207365676DB9
:1004B000656E742074696D6520286D73292C205831
:1004C0003D6D6178696D756D205859206A65726B54
:1004D00020286D6D2F73292C20205A3D6D6178697D
:1004E0006D756D205A206A65726B20286D6D2F73B3
:1004F000292C2020453D6D6178696D756D20452062
:100500006A65726B20286D6D2F73290020540020BE
:10051000204D323034205300416363656C65726155
:1005200074696F6E3A20533D616363656C657261F7
:1005300074696F6E2C20543D72657472616374200F
:10054000616363656C65726174696F6E002045005C
:10055000205A0020590020204D3230312058004DC3
:100560006178696D756D20416363656C6572617456
:10057000696F6E20286D6D2F7332293A0020450077
:10058000205A0020590020204D3230332058004D91
:100590006178696D756D20666565647261746573F7
:1005A00020286D6D2F73293A00204500205A002025
:1005B000590020204D393220580053746570732043
:1005C00070657220756E69743A00204261756472BC
:1005D0006174653A20002056657273696F6E3A2027
:1005E0005620312E302E303039372E312D6465763D
:1005F000656C6F706D656E74004641426C696E008B
:10060000204261746368204E756D6265723A200005
:10061000464142746F74756D20544F54554D445586
:10062000494E4F002200556E6B6E6F776E20636FE0
:100630006D6D616E643A2022002C2000556E73753A
:1006400070706F727465642068656164204944004D
:10065000436F6D6D756E69636174696F6E20696E4D
:1006600074657266616365206E6F74207370656374
:10067000696669656400536D6172742068656164C0
:1006800020636F6D6D756E69636174696F6E206450
:10069000697361626C656420627920616374697654
:1006A0006520746F6F6C20646566696E6974696F2C
:1006B0006E00432D3E003A0020205400432D3E00A2
:1006C0002020202041444320423A004973696E6B48
:1006D00065643A00565F35563A00565F3234563AF2
:1006E0000050726573737572653A0000202F207494
:1006F00077693A6F666600202F207477693A6F6ECB
:10070000003A2064726976653A0054002020200087
:10071000202A2000007A5F6D61783A20007A5F6DB0
:10072000696E3A20005A204F6666736574007A5FDE
:100730006D61783A20007A5F6D696E3A2000795FCA
:100740006D61783A2000795F6D696E3A2000785FBC
:100750006D61783A2000785F6D696E3A2000205A0A
:100760003A0020593A0020436F756E7420583A20A1
:100770000020453A00205A3A0020593A00583A00E1
:100780004649524D574152455F4E414D453A4D61A4
:10079000726C696E204649524D574152455F555221
:1007A0004C3A68747470733A2F2F67697468756275
:1007B0002E636F6D2F464142746F74756D2F4641E5
:1007C000426C696E2050524F544F434F4C5F564518
:1007D0005253494F4E3A312E30204D414348494EF5
:1007E000455F545950453A464142746F74756D20C7
:1007F00045585452554445525F434F554E543A3133
:1008000020555549443A30303030303030302D307A
:100810003030302D303030302D303030302D3030E1
:10082000303030303030303030300A0020423A0042
:1008300020453A00543A0020573A0020453A0054E7
:100840003A002042403A0020403A00202F003A006F
:10085000205400202F0020423A00202F006F6B20F0
:10086000543A004C617365722064697361626C650F
:1008700064202877726F6E67206D6F6465206F72D9
:10088000206572726F7229002569206D696E2C20B7
:10089000256920736563000A00205A3A2000205918
:1008A0003A200020583A2000426564000A00205A8D
:1008B0003A200020593A200020583A20004265642E
:1008C0000020002046656564726174653A2000204E
:1008D000643A200020623A200045716E20636F6503
:1008E0006666696369656E74733A20613A200048F0
:1008F0006F6D6520582F59206265666F7265205AAA
:10090000005A2070726F6265206F75742E206265C8
:100910006400486F6D6520582F59206265666F72BC
:1009200065205A002020506C616E6E6572427566BB
:1009300066657242797465733A2000204672656577
:10094000204D656D6F72793A2000464142746561B1
:100950006D00207C20417574686F723A20004665F6
:100960006220313320323031372031353A35383A50
:10097000313000204C61737420557064617465647B
:100980003A20005620312E302E303039372E312D7E
:10099000646576656C6F706D656E74004D61726C28
:1009A000696E20666F7220464142746F74756D20C7
:1009B000506572736F6E616C20466162726963612B
:1009C000746F720020536F66747761726520526590
:1009D00073657400205761746368646F67205265A3
:1009E000736574002042726F776E206F75742052A9
:1009F00065736574002045787465726E616C205271
:100A00006573657400506F77657255700065636833
:100A10006F3A007374617274005072696E7465721B
:100A20002073746F707065642064756520746F2026
:100A30006572726F72732E20466978207468652023
:100A40006572726F7220616E6420757365204D3916
:100A5000393920746F20726573746172742E202886
:100A600054656D706572617475726520697320726A
:100A7000657365742E2053657420697420616674F3
:100A800065722072657374617274696E6729006F94
:100A90006B004E6F204C696E65204E756D626572FD
:100AA000207769746820636865636B73756D2C20AB
:100AB0004C617374204C696E653A20004E6F204380
:100AC0006865636B73756D2077697468206C696EF7
:100AD00065206E756D6265722C204C617374204CBC
:100AE000696E653A2000636865636B73756D206D90
:100AF00069736D617463682C204C617374204C6958
:100B00006E653A20004C696E65204E756D626572A7
:100B1000206973206E6F74204C617374204C696E71
:100B200065204E756D6265722B312C204C6173749B
:100B3000204C696E653A20004572726F723A004D22
:100B400031313000205A3A0020593A0020583A00FA
:100B5000656E6473746F7073206869743A20006501
:100B600063686F3A00000020002300260029002C53
:100B7000002F0032000001000003010601090105F9
:100B8000050505070508080808020202020A0A0806
:100B9000080404040401010101010101010303032C
:100BA0000303030303040707070C0C0C0C0C0C0CC9
:100BB0000C0202020206060606060606060B0B0BD0
:100BC0000B0B0B0B0B01021020200808102040100B
:100BD0002040800201020108040201010204081001
:100BE000204080804020100804020180040201801F
:100BF0004020100804020108040201010204081048
:100C0000204080010204081020408000000A0B02EE
:100C1000090C0D0E0807030401000000000000008D
:100C200000000000000000000000000000000000C4
:100C30000000000000000012111000000000000081
:100C400000000000000000000000000000000000A4
:100C50000070012C0190012701A0012201C0011D9B
:100C600001E00118011002130130020E01600209B7
:100C70000190020401C002FF00F002FA003003F507
:100C8000007003F000C003EB001004E6007004E104
:100C900000D004DC004005D700B005D2004006CDEE
:100CA00000D006C8007007C3002008BE00E008B9E5
:100CB00000B009B400A00AAF00A00BAA00C00CA5A8
:100CC00000F00DA000400F9B00B010960030129174
:100CD00000E0138C00B01587009017820090197DFA
:100CE00000B01B7800E01D730020206E0080226998
:100CF00000D024640030275F0080295A00D02B5593
:100D000000002E500010304B0010324600E03341FE
:100D10000090353C002037370080383200B0392D44
:100D200000C03A2800B03B2300703C1E00203D1953
:100D300000B03D1400303E0F00903E0A00E03E053A
:100D400000203F00005072696E7465722068616C0B
:100D50007465642E206B696C6C28292063616C6C4F
:100D600065642100202D20496E76616C69642065E0
:100D700078747275646572206E756D62657220217B
:100D80000070012C0190012701B0012201C0011D5A
:100D900001F00118011002130130020E0160020976
:100DA0000190020401C002FF000003FA004003F5B5
:100DB000008003F000D003EB002004E6007004E1A3
:100DC00000E004DC004005D700C005D2004006CD9D
:100DD00000D006C8008007C3003008BE00F008B984
:100DE00000C009B400B00AAF00B00BAA00D00CA537
:100DF00000000EA000500F9B00C0109600501291F2
:100E00000000148C00C0158700B0178200B0197D57
:100E100000D01B7800001E730040206E00902269F5
:100E200000F024640040275F0090295A00E02B5511
:100E300000102E500020304B0010324600E03341AD
:100E40000090353C001037370070383200A0392D43
:100E500000B03A2800A03B2300603C1E00103D1962
:100E600000903D1400103E0F00703E0A00C03E0589
:100E700000003F00003A2045787472756465722066
:100E80007377697463686564206F66662E204D41D0
:100E90005854454D502074726967676572656420C7
:100EA00021003A2045787472756465722073776901
:100EB0007463686564206F66662E204D494E544504
:100EC0004D50207472696767657265642021005413
:100ED000656D7065726174757265206865617465B1
:100EE0006420626564207377697463686564206F49
:100EF00066662E204D415854454D502074726967E6
:100F00006765726564202121004572726F723A0034
:100F100053657474696E67732053746F72656400EF
:100F200053746F7265642073657474696E6773209F
:100F30007265747269657665640048617264636F96
:100F40006465642044656661756C742053657474CF
:100F5000696E6773204C6F61646564006563686FD8
:100F60003A0000576F726B696E67204D6F64653A87
:100F700000576F726B696E67204D6F64653A20434E
:100F80004E4300576F726B696E67204D6F64653A10
:100F9000204C6173657200576F726B696E67204DEC
:100FA0006F64653A2046464600576F726B696E67FC
:100FB000204D6F64653A2048796272696400206947
:100FC00073206E6F742061637469766500436F6D82
:100FD0006D20696E746572666163652000496E7686
:100FE000616C696420696E74657266616365202353
:100FF0000043616E6E6F7420666F72776172642059
:10100000636F6D6D616E647320746F20696E7465BB
:10101000726661636520233000526573656E643AC1
:1010200020006F6B005072696E7465722068616C8D
:101030007465642E206B696C6C28292063616C6C6C
:10104000656421005072696E7465722073746F70EC
:101050007065642064756520746F206572726F72AC
:10106000732E2046697820746865206572726F72ED
:1010700020616E6420757365204D39393920746F95
:1010800020726573746172742E202854656D7065CA
:101090007261747572652069732072657365742E50
:1010A00020536574206974206166746572207265CE
:1010B0007374617274696E67290000005643000002
:1010C0006A4300807143000000000000000000003F
:1010D0000000000000000000000000000000000010
:1010E000A0400000A0400000004000005643000067
:1010F0006A4300807143FFFFFF24F4D43050C38E55
:1011000020C2A24017828B7011127A910D816CD986
:101110000AA861E108C7586607615143061E4B5D86
:1011200005C145A7041A411104093D9803713931DD
:10113000034036DB0265339102D4305402802E1D09
:1011400002632CEE01752AC501B028A00110278189
:10115000018F2564012B244B01E0223401AC211FB7
:10116000018D200D01801FFC00841EED00971DDF06
:1011700000B81CD200E61BC600201BBC00641AB2DB
:1011800000B219A8000A19A0006A189900D1179195
:101190000040178B00B516840031167E00B3157918
:1011A000003A157300C7146F0058146A00EE1366F6
:1011B000008813630025135E00C7125B006C125792
:1011C0000015125400C111510070114F0021114B34
:1011D00000D61049008D104700461044000210420E
:1011E00000C00F4000800F3E00420F3C00060F3B46
:1011F00000CB0E3800930E37005C0E3500270E34FE
:1012000000F30D3200C10D3100900D3000600D2E45
:1012100000320D2D00050D2C00D90C2B00AE0C2931
:1012200000850C29005C0C2700350C27000E0C26CD
:1012300000E80B2400C40B2400A00B23007D0B232B
:10124000005A0B2100390B2100180B2000F80A1F4F
:1012500000D90A1E00BB0A1E009D0A1D00800A1D3F
:1012600000630A1C00470A1B002C0A1B00110A1A03
:1012700000F7091A00DD091900C4091900AB0919A2
:1012800000920917007B091800630917004C091622
:101290000036091600200916000A091500F5081580
:1012A00000E0081400CC081400B8081400A40814C6
:1012B00000900813007D0812006B081300580812F4
:1012C000004608120034081100230811001208110A
:1012D0000001081100F0071000E0071000D007100F
:1012E00000C0071000B0070F00A107100091070E03
:1012F0000083070F0074070F0065070E0057070EE5
:101300000049070E003B070D002E070E0020070DB9
:101310000013070D0006070D00F9060C00ED060D81
:1013200000E0060C00D4060C00C8060C00BC060C3D
:1013300000B0060C00A4060B0099060C008D060BED
:101340000082060B0077060B006C060B0061060A94
:101350000057060B004C060A0042060A0038060A2F
:10136000002E060A0024060A001A060A00100609C2
:101370000007060A00FD050900F4050900EB050950
:1013800000E2050900D9050900D0050900C70509D3
:1013900000BE050900B5050800AD050800A5050952
:1013A000009C050800940508008C050800840508C9
:1013B000007C050800740508006C05070065050839
:1013C000005D050700560508004E050700470507A4
:1013D000004005080038050700310507002A050709
:1013E00000230507001C050600160507000F05076A
:1013F000000805060002050700FB040600F50407C7
:1014000000EE040600E8040600E2040700DB040620
:1014100000D5040600CF040600C9040600C3040674
:1014200000BD040600B7040600B1040500AC0406C4
:1014300000A6040600A00405009B04060095040510
:1014400000900406008A0405008504050080040657
:10145000007A04050075040500700405006B04059E
:101460000066040500610405005C040500570405DE
:1014700000520405004D040500480405004304051E
:10148000003E0404003A040500350405003004045D
:10149000002C04050027040400230405001E040496
:1014A000001A04040016040500110404000D0404CD
:1014B00000090405000404040000040400FC030403
:1014C00000F8030400F4030400F0030400EC030438
:1014D00000E8030400E4030400E0030400DC030468
:1014E00000D8030400D4030400D0030400CC030498
:1014F00000C8030300C503030024F404D9201BC45F
:101500000C5C0E9804C4095F0265077101F405F9CB
:1015100000FB04B30048048700C103690058035569
:101520000003034500BE023A008402310053022A40
:10153000002902250004022000E4011C00C8011952
:1015400000AF01170098011400840113007101100D
:10155000006101100051010E0043010D0036010B26
:10156000002B010B0020010B00150109000C0109E3
:101570000003010800FB000800F3000800EB00076F
:1015800000E4000600DE000600D8000600D20006D7
:1015900000CC000500C7000500C2000500BD000426
:1015A00000B9000400B5000400B1000400AD00045F
:1015B00000A9000400A5000300A20003009F00048E
:1015C000009B0003009800030095000200930003B5
:1015D00000900003008D0002008B000300880002D1
:1015E000008600020084000300810002007F0002E8
:1015F000007D0002007B00020079000200770001FC
:101600000076000200740002007200010071000206
:10161000006F0002006D0001006C0002006A000112
:10162000006900020067000100660001006500011A
:10163000006400020062000100610001006000011E
:10164000005F0002005D0001005C0001005B000122
:10165000005A000100590001005800010057000124
:101660000056000100550001005400010053000025
:101670000053000100520001005100010050000120
:10168000004F0001004E0000004E0001004D00011F
:10169000004C0001004B0000004B0001004A00011B
:1016A0000049000100480000004800010047000117
:1016B0000046000000460001004500000045000112
:1016C000004400010043000000430001004200000C
:1016D0000042000100410000004100010040000103
:1016E000003F0000003F0001003E0000003E0001FE
:1016F000003D0000003D0001003C0000003C0000F7
:10170000003C0001003B0000003B0001003A0000EB
:10171000003A0001003900000039000100380000E3
:1017200000380000003800010037000000370001D9
:1017300000360000003600000036000100350000D1
:1017400000350000003500010034000000340000C6
:1017500000340001003300000033000000330001BA
:1017600000320000003200000032000100310000B1
:1017700000310000003100010030000000300000A6
:1017800000300001002F0000002F0000002F00009B
:10179000002F0001002E0000002E0000002E00018E
:1017A000002D0000002D0000002D0000002D000184
:1017B000002C0000002C0000002C0000002C000178
:1017C000002B0000002B0000002B0000002B00016C
:1017D000002A0000002A0000002A0000002A000160
:1017E0000029000000290000002900000029000055
:1017F0000029000100280000002800000028000047
:101800000028000000280001002700000027000039
:10181000002700000027000000270001002600002C
:10182000002600000026000000260000002600011F
:101830000025000000250000002500000025000014
:101840000025000000250001002400000024000005
:1018500000240000002400000024000100230000F8
:1018600000230000002300000023000000230000EC
:1018700000230000002300010022000000220000DD
:1018800000220000002200000022000000220001CF
:1018900000210000002100000021000000210000C4
:1018A00000210000002100000021000100200000B4
:1018B00000200000002000000020000000200000A8
:1018C000002000000020000000200001001F000098
:1018D000001F0000001F0000001F0000001F00008C
:1018E000001F0000001F0001001E0000001E00007D
:1018F000001E0000001E00000020746F6F206C6F3F
:101900006E6720657874727573696F6E207072658A
:1019100076656E7465640020636F6C64206578740E
:10192000727573696F6E2070726576656E7465642A
:10193000006563686F3A0000002100240027002A38
:10194000002D003000330001010000040107010AEE
:101950000100002200250028002B002E0031003459
:101960000002010000050108010B014E414E494EE5
:10197000495459494E46CDCCCC3D0AD7233C17B7E4
:10198000D13877CC2B329595E6241FB14F0A000051
:1019900020410000C84200401C4620BCBE4CCA1B6F
:1019A0000E5AAEC59D7441A377A411241FBECFEF7C
:1019B000D1E2DEBFCDBF16E0A0E0B2E0E4EFF4E696
:1019C00001E00BBF02C007900D92A631B107D9F715
:1019D00021E1A6E1B6E001C01D92A035B207E1F712
:1019E0001CE0C4EDDCE004C02197FE010E94C6A407
:1019F000C33DD107C9F70E944E9B0C946DB20C9465
:101A000000002F923F924F925F926F927F928F923F
:101A10009F92AF92BF92CF92DF92EF92FF920F937D
:101A20001F93CF93DF93CDB7DEB7C458D1400FB625
:101A3000F894DEBF0FBECDBF87E40E941F658823E8
:101A400011F40C9487220E94CD650E9450A66C313F
:101A5000710509F475C1D4F46230710509F41DC132
:101A600024F477FF37C00C94B9486430710509F449
:101A700027C10CF41AC16B31710511F00C94B948EF
:101A80001092850281E08093260B5AC1663271055F
:101A900011F40C94D9205CF46D31710509F402C283
:101AA0006E31710511F40C94931F0C94B9486B3589
:101AB000710511F40C94E8216C35710511F40C9446
:101AC000ED216A35710511F00C94B9481092D70ACE
:101AD0000C94B9488091EF068111DFC00E94F97320
:101AE0000E94F89A6093DF0A7093E00A8093E10AFB
:101AF0009093E20A8090150B9090160BA090170B14
:101B0000B090180BCF5CDE4F88829982AA82BB828C
:101B1000C153D140A50194016091F8087091F90872
:101B20008091FA089091FB080E94C4AE4090190B76
:101B300050901A0B60901B0B70901C0B00911D0BAA
:101B400010911E0B20911F0B3091200BCB5CDE4FB0
:101B5000088319832A833B83C553D14081117EC0FA
:101B6000A30192016091FC087091FD088091FE082C
:101B70009091FF080E94C4AE811170C020E030E057
:101B800040E752E460918102709182028091830269
:101B9000909184020E94DEA54B015C0186EE98E0E4
:101BA0009F938F93A1E2CA2EABE0DA2ECB5CDE4F7F
:101BB000E880F9800A811B81C553D140A3019201BD
:101BC000CF5CDE4F688179818A819B81C153D1408E
:101BD0000E94ED870F900F908091150B9091160B3E
:101BE000A091170BB091180B8093F8089093F90807
:101BF000A093FA08B093FB088091190B90911A0BEF
:101C0000A0911B0BB0911C0B8093FC089093FD08D6
:101C1000A093FE08B093FF0880911D0B90911E0BBE
:101C2000A0911F0BB091200B8093000990930109A4
:101C3000A0930209B09303098091210B9091220B8C
:101C4000A091230BB091240B809304099093050974
:101C5000A0930609B09307090C9427526091600283
:101C600070916102072E000C880B990B0E94CBAE7D
:101C7000209181023091820240918302509184022E
:101C80000E94AFA920E030E040E752E40E94DEA5C8
:101C900020E030E048EC52E47DCF8091EF068111E6
:101CA00004C00E947E7481E007C08091EF0681111C
:101CB00007C00E947E7480E00E9482700C942752BC
:101CC00080E50E941F65882339F00E94CD650E943F
:101CD00057A66B017C0103C0C12CD12C760183E592
:101CE0000E941F65882361F00E94CD6520E030E0EE
:101CF0004AE754E40E94AFA90E9457A66B017C01F9
:101D00000E94027C0E94F89AC60ED71EE81EF91E99
:101D10000E94F89A6093DF0A7093E00A8093E10AC8
:101D20009093E20A0E94F89A6C157D058E059F0536
:101D300010F00C94B9480E9487610E94826BF2CF28
:101D40001091EF0611110C94B9480E940C640E9486
:101D500089550E94696B10925E0610925D068FEFA6
:101D600090E090935C0680935B0610925A06109266
:101D700059062090DD0A8091810290918202A09103
:101D80008302B091840280932B0690932C06A0933B
:101D90002D06B0932E06809160029091610290937F
:101DA0002A068093290684E690E09093610280934E
:101DB00060020E94F89A6093DF0A7093E00A8093B1
:101DC000E10A9093E20A1092DD0A01E00093130207
:101DD0008091F8089091F908A091FA08B091FB0859
:101DE0008093150B9093160BA093170BB093180BC1
:101DF0008091FC089091FD08A091FE08B091FF0829
:101E00008093190B90931A0BA0931B0BB0931C0B90
:101E10008091000990910109A0910209B0910309F4
:101E200080931D0B90931E0BA0931F0BB093200B60
:101E30008091040990910509A0910609B0910709C4
:101E40008093210B9093220BA093230BB093240B30
:101E500010928102109282021092830210928402E8
:101E600088E50E941F6581110AC089E50E941F65EF
:101E7000811105C08AE50E941F65182F1027109355
:101E80000A028091260B882311F40C94BE4C111188
:101E90000C94BD488AE50E941F6581110C94BD48D1
:101EA0000C94BE4C8091EF0681110C94871F0E9408
:101EB000696B10925E0610925D068FEF90E0909332
:101EC0005C0680935B0610925A0610925906809128
:101ED0004A06882321F080914B06811123C0EDE052
:101EE000FAE08491882341F09091C00095FFFCCFE7
:101EF0008093C6003196F5CFEFEEF8E08491882309
:101F000041F09091C00095FFFCCF8093C6003196C0
:101F1000F5CF8091C00085FFFCCF8AE08093C6009A
:101F20000C94B9480E94027C0E948955CE018B5DB9
:101F30009E4F0E942885C35DDE4FE880F9800A81AC
:101F40001B81CD52D140E0920009F092010900932B
:101F50000209109303092091FC083091FD0840917B
:101F6000FE085091FF086091F8087091F90880917F
:101F7000FA089091FB080E94A0540E948D6480E0B2
:101F800090E0A8E4B3E48093810290938202A0934E
:101F90008302B0938402212C312CE1E4F0E0CB5C8D
:101FA000DE4FF983E883C553D140DD24D3940BE39E
:101FB00010E0C75BDE4F19830883C954D14024E188
:101FC00030E0CF5CDE4F39832883C153D140C35CFE
:101FD000DE4F1882CD53D1404101880C991C880CEA
:101FE000991CCB5ADE4F99828882C555D140AA24CC
:101FF000A394B12CAC0EBD1EA80CB91CCF5BDE4F58
:10200000B982A882C154D140C75CDE4F19821882C0
:10201000C953D140CB5CDE4F08811981C553D140F3
:10202000012E000C220B330BC35BDE4F0883198398
:102030002A833B83CD54D1402114310489F020E020
:1020400030E040EA50E4609100097091010980910C
:102050000209909103090E94E4A44B015C0106C0AF
:10206000812C912C18E2A12E12E4B12E8091EF0662
:10207000811147C2C35BDE4F688179818A819B8170
:10208000CD54D1400E94CBAECB5BDE4F68837983C9
:102090008A839B83C554D140CF5CDE4F2881398130
:1020A000C153D140B901330F880B990B0E94CBAEBD
:1020B000CF5ADE4F688379838A839B83C155D14091
:1020C0002091FC083091FD084091FE085091FF08D6
:1020D0006091F8087091F9088091FA089091FB08D6
:1020E000850174010E94B964409000095090010973
:1020F000609002097090030920E030E046E752E466
:10210000CB5BDE4F688179818A819B81C554D14048
:102110000E94E3A44B015C0120E030E048E851E478
:10212000CF5ADE4F688179818A819B81C155D14028
:102130000E94E3A483017201A50194010E94B96485
:10214000D1100E9439640E94895580E090E0A8E493
:10215000B3E48093810290938202A0938302B093B0
:1021600084022091FC083091FD084091FE085091B6
:10217000FF086091F8087091F9088091FA08909131
:10218000FB08A6EEB8E0BF93AF9305E5802E982C30
:10219000A82C00E4B02EE4E0CE2EE9E0DE2EE12C07
:1021A000F12C00E211EC0E94ED870E94027C82E09B
:1021B0000E9496634B015C012091FC083091FD0860
:1021C0004091FE085091FF086091F8087091F9085D
:1021D0008091FA089091FB08850174010E94A05437
:1021E00086EE90E10E9419659B01AC01C501B40126
:1021F0000E94E4A42B013C0120E030E040E752E4DF
:102200006091810270918202809183029091840298
:102210000E94DEA54B015C012091FC083091FD0875
:102220004091FE085091FF086091F8087091F908FC
:102230008091FA089091FB08A6EEB8E0BF93AF93A7
:10224000830172010E94ED870E94027C812C912CF7
:10225000A8E4AA2EA2E4BA2E809281029092820271
:10226000A0928302B092840286EE90E10E941965EA
:102270006B017C0120E030E040E752E46091810294
:102280007091820280918302909184020E94DEA567
:102290004B015C01A7019601C701B6010E94E4A4AD
:1022A0009B01AC01C301B2010E94E3A47B018C013C
:1022B0002091FC083091FD084091FE085091FF08E4
:1022C0006091F8087091F9088091FA089091FB08E4
:1022D000A6EEB8E0BF93AF93B4E0CB2EB9E0DB2E0F
:1022E0000E94ED870E94027C82E00E9496637B013F
:1022F0008C01609300097093010980930209909307
:1023000003092091FC083091FD084091FE0850918E
:10231000FF086091F8087091F9088091FA0890918F
:10232000FB080E94A054C0900009D0900109E090E1
:102330000209F0900309EFEAF2E084910F900F9008
:102340000F900F900F900F90882349F09091C0004C
:1023500095FFFCCF8093C60031968491F5CFEAEAD1
:10236000F2E08491882341F09091C00095FFFCCF6A
:102370008093C6003196F5CF42E0CF5ADE4F688198
:1023800079818A819B81C155D1400E94CF53E5EA72
:10239000F2E08491882341F09091C00095FFFCCF3A
:1023A0008093C6003196F5CF42E0CB5BDE4F68816B
:1023B00079818A819B81C554D1400E94CF53E0EA44
:1023C000F2E08491882341F09091C00095FFFCCF0A
:1023D0008093C6003196F5CF42E0C701B6010E9456
:1023E000CF53EEE9F2E08491882341F09091C00050
:1023F00095FFFCCF8093C6003196F5CFC75CDE4FCA
:1024000008811981C953D140CB5ADE4F8880998009
:10241000C555D140080D191DB1ECAB2EB12CAC0E39
:10242000BD1E0A0D1B1D20E030E0A901C701B60149
:102430000E94E4A4D8016D937D938D939C93139790
:10244000CF5BDE4FA881B981C154D140CF5ADE4F56
:1024500088809980AA80BB80C155D1408D929D9281
:10246000AD92BD92CF5BDE4FB983A883C154D140FA
:10247000C75CDE4FE881F981C953D1403496C75C0F
:10248000DE4FF983E883C953D140CB5BDE4F8880B0
:102490009980AA80BB80C554D140DC968D929D92D4
:1024A000AD92BC92DF97FD01E458FF4F812C912C37
:1024B00010E8A12E1FE3B12E80829182A282B38206
:1024C0000FEF201A300ACF5CDE4F28813981C153CB
:1024D000D140C75BDE4F48815981C954D140240F98
:1024E000351FCF5CDE4F39832883C153D140D12CB7
:1024F000C75CDE4F88819981C953D140409709F06C
:102500009BCDCB5CDE4FA881B981C553D140D89615
:10251000CB5CDE4FB983A883C553D140A132B14013
:1025200079F1C35CDE4F3881CD53D140311117C0F2
:1025300045EC5FEFC75BDE4F59834883C954D140F8
:1025400086EC90E0CF5CDE4F99838883C153D14005
:1025500091E0C35CDE4F9883CD53D1403DCDABE3DA
:10256000B0E0C75BDE4FB983A883C954D140E4E132
:10257000F0E0CF5CDE4FF983E883C153D14027CD33
:102580000E94666420E030E040E050E46091000981
:102590007091010980910209909103090E94E4A4BD
:1025A0007B018C012091FC083091FD084091FE08D0
:1025B0005091FF086091F8087091F9088091FA082D
:1025C0009091FB08E6EE6E2EE8E07E2E7F926F92F1
:1025D000812C912CF0EAAF2EF0E4BF2EA4E0CA2E9D
:1025E000A9E0DA2E0E94ED870E94027C0E940C6412
:1025F000E0900009F090010900910209109103098F
:102600002091FC083091FD084091FE085091FF0890
:102610006091F8087091F9088091FA089091FB0890
:102620007F926F920E94ED870E94027C80EC90E086
:102630000E946DAACF5CDE4F99838883C153D1403D
:102640000F900F900F900F9020E030E080E090E02E
:10265000AC01420F531FCF5CDE4FE881F981C153BB
:10266000D140E40FF51FA1E0B0E0AC0FBD1FA40FF7
:10267000B51F4D915D916D917C9140835183628333
:10268000738304968034910519F7205C3F4F203CFA
:102690003105E1F6CF5CDE4FA881B981C153D1404D
:1026A000CD90DD90ED90FC9020E030E0A901C701D5
:1026B000B6010E9444A787FF04C0F7FAF094F7F828
:1026C000F094CF5CDE4F88809980C153D140CB5BC2
:1026D000DE4F99828882C554D14000EC800E911C57
:1026E000CF5CDE4FA880B980C153D14000E010E03C
:1026F000F501E00FF11F408051806280738020E07F
:1027000030E0A901C301B2010E9444A7A3019201D4
:1027100087FD5058C701B6010E94C4AE87FF0FC0A5
:1027200020E030E0A901C301B2010E9444A7730177
:10273000620187FF04C0F7FAF094F7F8F0940C5F99
:102740001F4F00341105A1F610E4A10EB11CA8140E
:10275000B90461F6A701960160E070E080E895E2B7
:102760000E94DEA5C958DE4F688379838A839B83E4
:10277000C757D1408CE090E00E946DAACF5BDE4F3E
:1027800099838883C154D14086E090E00E946DAA6D
:10279000CB5CDE4F99838883C553D1408CE090E0B9
:1027A0000E946DAACF5ADE4F99838883C155D140CC
:1027B00080E490E00E946DAAC75BDE4F9983888316
:1027C000C954D140CB5CDE4FA881B981C553D140FB
:1027D00011961C921E9213961C921E921297159699
:1027E0001C921E9214978CE090E00E946DAAC7592B
:1027F000DE4F99838883C956D140CB5CDE4F8880F9
:102800009980C553D140CB59DE4F99828882C556F5
:10281000D140CF5CDE4FC880D980C153D140740114
:1028200001E010E0C75CDE4F19830883C953D14033
:10283000D7018D919C91119797FF07C08827992701
:10284000801B910B8D939C9347C0F70111830083EC
:10285000892B09F441C0C75CDE4F88809980C95339
:10286000D1400815190591F0C401019766E0880F61
:10287000991F6A95E1F7B601CF5CDE4FA880B98059
:10288000C153D1408A0D9B1D0E94A657C75CDE4FE5
:10289000E881F981C953D140E150F048EE0FFF1FA4
:1028A000CB5CDE4F88809980C553D140E80DF91D7F
:1028B00080819181D7018D939C9311830083C75CA4
:1028C000DE4FE881F981C953D1403196C75CDE4FB4
:1028D000F983E883C953D1400F5F1F4FF2E0EF0E39
:1028E000F11C24E0C20ED11C0430110509F0A0CF68
:1028F000C75CDE4F28803980C953D140CB5CDE4FA6
:10290000C880D980C553D14036E0C30ED11CCF5CFE
:10291000DE4FA880B980C153D14040E8A40EB11C5D
:1029200083E090E0C35CDE4F99838883CD53D14030
:1029300043E0E42EF12CD6011E910E916D0117FF9C
:1029400046C01195019511090D931C93C35CDE4F90
:1029500088809980CD53D140E814F90459F1C4011D
:10296000019726E0880F991F2A95E1F7B501CF5C02
:10297000DE4F88809980C153D140880D991D0E94F7
:10298000A657C35CDE4FE881F981CD53D140E150B9
:10299000F048EE0FFF1FCB5CDE4F88809980C55357
:1029A000D140E80DF91D8081918111830083D6010A
:1029B0008D939C93C35CDE4FE881F981CD53D14068
:1029C0003197C35CDE4FF983E883CD53D140F1E00A
:1029D000EF1AF10800E4A01AB108E114F10409F0BB
:1029E000AACFC75CDE4F88809980C953D14086E06A
:1029F000880C991C8A95E1F7C75CDE4F6880798066
:102A0000C953D140660C771C660C771CCF5ADE4F39
:102A100048805980C155D140460C571CC75CDE4FD9
:102A2000A880B980C953D14000E010E060E070E0B8
:102A30006B0140E4C40ED11C780154E0E50EF11C9A
:102A4000C35CDE4F88819981CD53D1408A159B05A7
:102A5000FCF060547109680D791DCF5CDE4F288150
:102A60003981C153D140620F731F80E190E00E9411
:102A7000ED5604501109F201E00FF11F60837183DC
:102A8000828393833FEFA31AB30A8701B601D0CFA5
:102A900080E090E09C012C5F3F4FC35CDE4F88805C
:102AA0009980CD53D14082149304F4F0F901E60DDE
:102AB000F71D3897C759DE4F88809980C956D14095
:102AC000E80DF91D0497D201A80FB91F8D919D91B2
:102AD0000D90BC91A02D80839183A283B3830FEFCF
:102AE000201A300AC901D6CFCF5ADE4FA880B9804C
:102AF000C155D140CF58DE4FB982A882C157D140CD
:102B0000C759DE4F88809980C956D140C959DE4FD8
:102B100099828882C756D140CB5CDE4FA880B980AD
:102B2000C553D140CF59DE4FB982A882C156D1409A
:102B3000CF5CDE4F88809980C153D140C359DE4FAE
:102B400099828882CD56D140CF5ADE4FA880B98075
:102B5000C155D140CB5ADE4FB982A882C555D1406C
:102B6000340144244394512CC75CDE4F8880998003
:102B7000C953D140481459040CF4D3C0C35CDE4F90
:102B8000A880B980CD53D1404A145B040CF0C9C071
:102B900082017201B12CA12C912C812CC12CD12C41
:102BA000CB5ADE4F28803980C555D14024E0220E13
:102BB000311CF6013497E20DF31D3081C35BDE4F0B
:102BC0003883CD54D1404181C75ADE4F4883C9551F
:102BD000D1405281C55ADE4F5883CB55D1408381B5
:102BE000C15ADE4F8883CF55D140232F342F452F34
:102BF000582F6B2D7A2D892D982D0E94C4AE87FFFA
:102C000015C0C35BDE4FB880CD54D140C75ADE4FEC
:102C1000A880C955D140C55ADE4F9880CB55D140C8
:102C2000C15ADE4F8880CF55D14087019FEFE91A06
:102C3000F90AA4E0CA0ED11CC35CDE4FE881F98119
:102C4000CD53D140EE15FF050CF0B3CF041515059B
:102C500009F467C0B80161507109A6E0660F771FDB
:102C6000AA95E1F7CF5CDE4F88809980C153D140AF
:102C7000680D791DC359DE4F88819981CD56D140A9
:102C80000E94A657C8018150904C880F991F880F49
:102C9000991FCB5ADE4FA881B981C555D1404D91BE
:102CA0005D916D917C91CF5ADE4FE881F981C155DC
:102CB000D140E80FF91F4083518362837383C95960
:102CC000DE4FE881F981C756D14040815181628150
:102CD0007381C759DE4FE881F981C956D140E80FA9
:102CE000F91F4083518362837383F801E150F048F8
:102CF000EE0FFF1FCB5CDE4F88809980C553D1401B
:102D0000E80DF91D80819181CF59DE4FA881B981ED
:102D1000C156D1402D913C911197318320838D93E1
:102D20009C93CB5ADE4FE881F981C555D140119271
:102D3000119211921192CB5ADE4FF983E883C55557
:102D4000D140F1E18F2E912C84189508C35BDE4FA2
:102D500099828882CD54D140B301C4010E94ED56BE
:102D6000C55ADE4F688379838A839B83CB55D140D4
:102D700020E030E0A9010E94C4AE882309F460C2BB
:102D8000D301CD90DD90ED90FC9020E030E0A901E2
:102D9000C701B6010E94C4AE882321F120E030E0D3
:102DA000A901C701B6010E94C4AE87FD05C020E09D
:102DB00030E040E85FE304C020E030E040E85FEB53
:102DC000C55ADE4F688179818A819B81CB55D1407C
:102DD0000E94AFA9C55ADE4F688379838A839B839B
:102DE000CB55D140C55ADE4F288139814A815B815C
:102DF000CB55D14060E070E080E89FE30E94DEA503
:102E00004B015C01C35BDE4F88819981CD54D14079
:102E100065E070E00E94B2A46C011C01730100E047
:102E200010E00C151D0591F0A5019401F7016081DA
:102E30007181828193810E94AFA9D7016D937D93A7
:102E40008D939D937D010F5F1F4FEBCF000F111FDF
:102E5000000F111F060D171DA5019401F8016081D7
:102E60007181828193810E94AFA9D8016D937D9376
:102E70008D939C931397A501940114966D917D9168
:102E80008D919C9117970E94AFA9F8016483758377
:102E900086839783A50194016085718582859385DA
:102EA0000E94AFA9D80118966D937D938D939C9342
:102EB0001B97A50194011C966D917D918D919C911C
:102EC0001F970E94AFA9F801648775878687978747
:102ED000A501940160897189828993890E94AFA9B3
:102EE000D80150966D937D938D939C935397B5E045
:102EF0002B0E311C0C5E1F4FC35BDE4FE881F98146
:102F0000CD54D1402E163F060CF4A6CF20E030E081
:102F100040E85FE3D3016D917D918D919C910E947A
:102F2000E4A4F301608371838283938382010F5F42
:102F30001F4FC15ADE4F19830883CF55D140C9595D
:102F4000DE4F28813981C756D1402C5F3F4FC5598C
:102F5000DE4F39832883CB56D140130134E4230E4E
:102F6000311CCB5ADE4F88809980C555D140C75A55
:102F7000DE4F99828882C955D14070E1A72EB12CCD
:102F8000A418B508C158DE4FB982A882CF57D140E6
:102F9000C15ADE4F48815981CF55D1404430510547
:102FA00009F430C1810104501109A801B301C35BC8
:102FB000DE4F88819981CD54D1400E9409569058A6
:102FC000D3012D913D914D915C910E94DEA56B0145
:102FD0007C0120E030E0A9010E94C4AE882359F0B2
:102FE0009301B701A601C35BDE4F88819981CD545F
:102FF000D1400E949F83C75CDE4F88809980C9536F
:10300000D140C15ADE4FA880B980CF55D140A81415
:10301000B9040CF4CAC0C35CDE4F88809980CD53DC
:10302000D1408A149B040CF4C0C0C75ADE4FA8815B
:10303000B981C955D1408D909D90AD90BC9020E054
:1030400030E0A901C501B4010E94C4AE882309F48F
:10305000ACC0F1013497C080D180E280F38020E0E1
:1030600030E0A901C701B6010E9444A787FF04C050
:10307000F7FAF094F7F8F094A5019401C701B601AE
:103080000E94DEA59B01AC010E94AFA99B01AC018F
:1030900060E070E080E89FE30E94E3A46B017C01A4
:1030A00020E030E0A9010E9444A718161CF0C12CB2
:1030B000D12C7601C559DE4FE881F981CB56D1403C
:1030C0002081318142815381C501B4010E94DEA576
:1030D000CD58DE4F688379838A839B83C357D14061
:1030E0002DEC3CEC4CE45DE3C701B6010E94AFA9B6
:1030F000C558DE4F688379838A839B83CB57D14041
:10310000CD58DE4F288139814A815B81C357D14038
:10311000CA01B9010E94AFA99B01AC01C558DE4F9D
:10312000688179818A819B81CB57D1400E94AFA968
:1031300020E030E040E85FE30E94E4A420E030E0DB
:1031400040E85FE30E94C4AE882389F0C701B6015E
:103150000E9439A89B01AC01C501B4010E94AFA92E
:10316000C75ADE4FA881B981C955D14019C0B101F4
:10317000C158DE4F88819981CF57D1400E94ED56CA
:10318000C75ADE4FE881F981C955D1406083718308
:1031900082839383C559DE4FA881B981CB56D14034
:1031A0006D937D938D939C931397C15ADE4FE88165
:1031B000F981CF55D1403196C15ADE4FF983E8836A
:1031C000CF55D140C75ADE4F08811981C955D1402A
:1031D0000C5F1F4FC75ADE4F19830883C955D14072
:1031E000C559DE4F28813981CB56D1402C5F3F4FE6
:1031F000C559DE4F39832883CB56D14030E4230EA6
:10320000311CC6CEF30180819181A281B381CB5A5A
:10321000DE4FE881F981C555D14034978083918391
:10322000A283B383C55ADE4F88819981AA81BB816D
:10323000CB55D140B058F30180839183A283B383EF
:10324000FFEF4F1A5F0A04E4600E711CC359DE4F92
:1032500028813981CD56D140205C3F4FC359DE4F84
:1032600039832883CD56D140C959DE4F48815981D1
:10327000C756D1404C5F5F4FC959DE4F59834883D1
:10328000C756D140CF59DE4F88819981C156D14070
:103290000296CF59DE4F99838883C156D14094E07E
:1032A0004916510409F060CCCF5CDE4FA881B9818A
:1032B000C153D140CD90DD90ED90FC904601570177
:1032C000B7FAB094B7F8B09420E030E0A901C70194
:1032D000B6010E9444A787FD05C07C2D6D2D9E2D53
:1032E0008F2D04C0782D692D9A2D8B2D272F362FE9
:1032F000492F582FC958DE4F688179818A819B8177
:10330000C757D1400E94AFA92B013C01CF5CDE4FD3
:1033100008811981C153D140E12CF12CF801808042
:103320009180A280B38020E030E0A901C501B40102
:103330000E9444A787FF04C0B7FAB094B7F8B094CE
:10334000A3019201C501B4010E94C4AE181694F401
:10335000FFEFEF1AFF0A0C5B1F4F23E0E216F104A8
:10336000E9F6C759DE4F88819981C956D1400E943C
:1033700002AB30C0E114F10469F5CB5CDE4FA881EB
:10338000B981C553D1408D919C91119791958195AB
:10339000910911969C938E9312968D919C911397FF
:1033A00091958195910913969C938E9312971496FB
:1033B0008D919C91159791958195910915969C9366
:1033C0008E9314979701220F331F220F331F80E033
:1033D00090E02CC2FE01EF53FF4FC75BDE4F288009
:1033E0003980C954D140CE018F5F9E4FD1014191A8
:1033F0005191619171914D935D936D937D93E81718
:10340000F907A9F7C75BDE4FC880D980C954D140FE
:1034100088248394912CCF58DE4FE881F981C157DD
:10342000D1404190519061907190CF58DE4FF98317
:10343000E883C157D14020E030E0A901C301B201C7
:103440000E94C4AE882309F44FC0CB5BDE4FA88135
:10345000B981C554D1400D911D912D913C91139787
:10346000C75CDE4F088319832A833B83C953D1404D
:10347000FD01408251826282738241E1A42EB12C0F
:10348000A818B908A601BD01C5010E9409569058A7
:10349000A30192010E94DEA52B013C0120E030E057
:1034A000A9010E94C4AE882361F08601CB5BDE4F88
:1034B00028813981C554D140B301A201C5010E94C0
:1034C0009F83C75CDE4F088119812A813B81C953E4
:1034D000D140CB5BDE4FA881B981C554D1400D935B
:1034E0001D932D933C931397BFEF8B1A9B0ACB5BD5
:1034F000DE4FE881F981C554D140EC5BFF4FCB5BD7
:10350000DE4FF983E883C554D140F4E0CF0ED11CDF
:10351000E814F9040CF07FCFCF5BDE4FE881F9812E
:10352000C154D14081E090E0D1014D915D916D9108
:103530007D911D0141935193619371930196E8161A
:10354000F90694F7C75BDE4FE881F981C954D14091
:103550001082118212821382F1E0EF16F104D1F091
:10356000C75BDE4FA881B981C954D14014961D9222
:103570001D921D921C921797B3E0EB16F10451F4C3
:10358000C75BDE4FE881F981C954D14010861186AE
:10359000128613866701F1E0CF1AD1084701880C23
:1035A000991C880C991CC35CDE4F99828882CD538C
:1035B000D140CF5BDE4FA880B980C154D140A80C68
:1035C000B91CC75CDE4FB982A882C953D14084E4DC
:1035D0008E9D40018F9D900C1124CB5BDE4F998214
:1035E0008882C554D140612C712C88248394912CFD
:1035F000CB5BDE4FE881F981C554D140E60DF71D64
:10360000E454F109CF5CDE4FA880B980C153D140AA
:10361000EA0DFB1D208031804280538020E030E0A5
:10362000A901C201B1010E94C4AE81112AC0CB5BC5
:10363000DE4FC880D980C554D14004E4C01AD108F7
:10364000CF5CDE4F88809980C153D140C80CD91C13
:1036500081E190E05C01AE18BF08812C912C2224FE
:103660002394312CC35CDE4F08811981CD53D140A6
:1036700004501109CB5BDE4F19830883C554D14038
:10368000B6C0A2019101C75CDE4FA881B981C953C0
:10369000D1409E918E917E916E91C75CDE4FB98331
:1036A000A883C953D1400E94DEA5C75CDE4FE881E4
:1036B000F981C953D1406083718382839383C1149C
:1036C000D10471F11B012C0157FA509457F8509412
:1036D0005701A818B90886E0AA0CBB1C8A95E1F727
:1036E000CF5CDE4F08811981C153D140A00EB11EBD
:1036F0001C141D04ACF420E030E0A901C201B101AA
:103700000E94C4AE882361F0CF5BDE4F088119812F
:10371000C154D1409501B201A101C6010E949F830D
:103720001FEF811A910A24E4621A710831E0C31A6A
:10373000D108E814F9040CF05BCF79CFD6018D9154
:103740009D910D90BC91A02DC75CDE4F888399831D
:10375000AA83BB83C953D140F60140825182628261
:103760007382CB5BDE4F08811981C554D140080DAF
:10377000191DC75BDE4F28813981C954D140020F22
:10378000131FA801B601C5010E9409569058A30154
:1037900092010E94DEA52B013C0120E030E0A9014E
:1037A0000E94C4AE882331F09601B301A201C50185
:1037B0000E949F83C75CDE4F88819981AA81BB816B
:1037C000C953D140F60180839183A283B383FFEF75
:1037D0002F1A3F0A04E0801A910814E4C11AD10894
:1037E0002FEFA21AB20AE214F3040CF4C6CDC35CA4
:1037F000DE4FE881F981CD53D140E80DF91D3497B2
:10380000CF5ADE4F48815981C155D140E40FF51F91
:10381000408051806280738020E030E0A901C301C4
:10382000B2010E94C4AE882391F288CF13E0E11662
:10383000F104A1F0FC01E20FF31FCF5BDE4F8880A3
:103840009980C154D140E80DF91D10821182128275
:1038500013820FEFE01AF00A0496E8CFCF5BDE4F39
:10386000A881B981C154D14021E030E0CB59DE4F6D
:10387000E881F981C556D1408081918118161906D9
:10388000BCF52F5F3F4FCB59DE4F08811981C556DC
:10389000D1400E5F1F4FCB59DE4F19830883C556A9
:1038A000D14014962430310509F7CF5CDE4F888172
:1038B0009981C153D1400E9402ABCB5CDE4F88811D
:1038C0009981C553D1400E9402ABCF5ADE4F888107
:1038D0009981C155D1400E9402ABC75BDE4F888100
:1038E0009981C954D1400E9402ABE9EDF8E04AC089
:1038F000919581959109CB59DE4FE881F981C556A3
:10390000D140918380838217930709F4BACF4D91F8
:103910005D916D917C911397FC01E150F04CEE0F9D
:10392000FF1FEE0FFF1FCF5BDE4F88809980C154D1
:10393000D140E80DF91DC080D180E280F380CD92A6
:10394000DD92ED92FC9213974083518362837383DF
:10395000FC01E150F048EE0FFF1FCB5CDE4FA8806A
:10396000B980C553D140EA0DFB1D808191819195AD
:1039700081959109C6CF9091C00095FFFCCF8093AF
:10398000C600319684918111F6CFCF5BDE4FA881BE
:10399000B981C154D1406D917D918D919C9146E04A
:1039A0000E94CF53E4EDF8E08491882341F0909198
:1039B000C00095FFFCCF8093C6003196F5CFCF5B5A
:1039C000DE4FE881F981C154D140648175818681DF
:1039D000978146E00E94CF53EFECF8E08491882372
:1039E00041F09091C00095FFFCCF8093C6003196C6
:1039F000F5CFCF5BDE4FA881B981C154D140189675
:103A00006D917D918D919C911B9746E00E94CF53C3
:103A10008091C00085FFFCCF8AE08093C600CF5B19
:103A2000DE4FA881B981C154D14014968D909D90EC
:103A3000AD90BC901797CF5CDE4F88829982AA82A6
:103A4000BB82C153D140B7FAB094B7F8B094CD90CF
:103A5000DD90ED90FC902601370177FA709477F8AD
:103A60007094EEE4F3E08191882339F09091C000E6
:103A700095FFFCCF8093C600F6CFEFEBF2E0849188
:103A8000882341F09091C00095FFFCCF8093C60041
:103A90003196F5CF46E0C301B2010E94CF53EAEB65
:103AA000F2E08491882341F09091C00095FFFCCF13
:103AB0008093C6003196F5CF46E0C501B4010E945F
:103AC000CF53E5EBF2E08491882341F09091C00060
:103AD00095FFFCCF8093C6003196F5CF46E060E0BD
:103AE00070E080E89FE30E94CF53E3EBF2E0849123
:103AF000882341F09091C00095FFFCCF8093C600D1
:103B00003196F5CF1E01B7EE2B1ABEEF3B0AF1013D
:103B1000408251826282738284829582A682B782B9
:103B2000412C512C00E8602E0FE3702E4086518608
:103B300062867386C1010E94F85A5E01F3EFAF1AE4
:103B4000FEEFBF0AD5014D925D926D927C92139764
:103B5000F50114821582168217821896CD92DD9295
:103B6000ED92FC921B97C5010E94F85A6E01B1E0DC
:103B7000CB0EDB1EF6011082118212821382448268
:103B8000558266827782CF5CDE4F288139814A81F7
:103B90005B81C153D1402087318742875387C6015B
:103BA0000E94F85AD5010D911D912D913C911397CA
:103BB000CF5CDE4F088319832A833B83C153D140F6
:103BC00014964D905D906D907C90179718960D917E
:103BD0001D912D913C911B97CB5BDE4F0883198380
:103BE0002A833B83C554D140D6010D911D912D915F
:103BF0003C911397CB5CDE4F088319832A833B8368
:103C0000C553D14014960D911D912D913C9117975C
:103C1000C75CDE4F088319832A833B83C953D14095
:103C200018960D911D912D913C911B97C35CDE4F11
:103C3000088319832A833B83CD53D140D1010D9151
:103C40001D912D913C911397C75BDE4F088319831B
:103C50002A833B83C954D14014964D915D916D9157
:103C60007C91179718968D919D910D90BC91A02DE8
:103C7000CF5CDE4F088119812A813B81C153D1403D
:103C800000932302109324022093250230932602EE
:103C900040922702509228026092290270922A02D2
:103CA000CB5BDE4F088119812A813B81C554D1400D
:103CB00000932B0210932C0220932D0230932E029E
:103CC000CB5CDE4F088119812A813B81C553D140ED
:103CD00000932F021093300220933102309332026E
:103CE000C75CDE4F088119812A813B81C953D140CD
:103CF000009333021093340220933502309336023E
:103D0000C35CDE4F088119812A813B81CD53D140AC
:103D100000933702109338022093390230933A020D
:103D2000C75BDE4F088119812A813B81C954D1408C
:103D300000933B0210933C0220933D0230933E02DD
:103D400040933F02509340026093410270934202BD
:103D50008093430290934402A0934502B09346029D
:103D6000C6010E942885D6016D917D918D919C910F
:103D700013976093F8087093F9088093FA0890936A
:103D8000FB0814962D913D914D915C9117972093CE
:103D9000FC083093FD084093FE085093FF08E09024
:103DA0002506F09026060091270610912806E0923D
:103DB0000009F092010900930209109303090E947F
:103DC000A054CF5BDE4F88819981C154D1400E94BD
:103DD00002AB0E94027C2FB7F8946091F0087091BA
:103DE000F1088091F2089091F3082FBF0E94CBAEAA
:103DF00020913409309135094091360950913709A5
:103E00000E94DEA52B013C0120E030E048E851E4AF
:103E10006091F8087091F9088091FA089091FB0878
:103E20000E94E3A4F101608371838283938320E085
:103E300030E046E752E46091FC087091FD08809103
:103E4000FE089091FF080E94E3A4D5016D937D9335
:103E50008D939C9313978091000990910109A091F3
:103E60000209B0910309F60180839183A283B38391
:103E7000DF92CF92BF92AF923F922F920DB71EB7B3
:103E8000045211090FB6F8941EBF0FBE0DBFADB797
:103E9000BEB7119684E2E3E2F2E001900D928A95BA
:103EA000E1F70E94135AA3019201D6016D917D9111
:103EB0008D919C910E94E3A4209100093091010909
:103EC00040910209509103090E94E4A47B018C01F6
:103ED000609300097093010980930209909303098C
:103EE0000FB6F894DEBF0FBECDBF2091FC08309115
:103EF000FD084091FE085091FF086091F80870910C
:103F0000F9088091FA089091FB080E94A0540E9441
:103F1000E97B8091EF06882311F40C94B9480E9444
:103F200089550C94B9488091EF0681110C94B948D9
:103F300085E50E941F65882329F00E94CD656B01ED
:103F40007C0106C0C12CD12C18E4E12E13E4F12E23
:103F500084E40E941F6581110E94CD650E94027C4D
:103F60000E948D64C0928102D0928202E09283020C
:103F7000F0928402E3ECF8E08491882341F0909180
:103F8000C00095FFFCCF8093C6003196F5CF6091BD
:103F9000810270918202809183029091840242E0BA
:103FA0000E94CF53E1ECF8E08491882341F0909196
:103FB000C00095FFFCCF8093C6003196F5CF60918D
:103FC0008102709182028091830290918402CF5786
:103FD000DE4F6883C158D140CE57DE4F7883C25838
:103FE000D140CD57DE4F8883C358D140CC57DE4FE8
:103FF0009883C458D1400E948955CF57DE4F6881BD
:10400000C158D140CE57DE4F7881C258D140CD57EC
:10401000DE4F8881C358D140CC57DE4F9881C458B9
:10402000D1406093810270938202809383029093C7
:10403000840220E030E040E752E40E94DEA54B011C
:104040005C0120E030E040E85FE36091250670917C
:10405000260680912706909128060E94E3A47B0102
:104060008C012091FC083091FD084091FE08509190
:10407000FF086091F8087091F9088091FA08909112
:10408000FB08E6EEF8E0FF93EF93B4E0CB2EB9E047
:10409000DB2E0E94ED870E94027C82E00E949663E4
:1040A0007B018C012091FC083091FD084091FE08B5
:1040B0005091FF086091F8087091F9088091FA0812
:1040C0009091FB080E94A054EDEBF8E084910F90D2
:1040D0000F90882349F09091C00095FFFCCF80930A
:1040E000C60031968491F5CFE8EBF8E084918823FF
:1040F00041F09091C00095FFFCCF8093C6003196AF
:10410000F5CF6091F8087091F9088091FA089091C4
:10411000FB0842E00E94CF53E3EBF8E08491882350
:1041200041F09091C00095FFFCCF8093C60031967E
:10413000F5CF6091FC087091FD088091FE08909188
:10414000FF0842E00E94CF53EEEAF8E08491882312
:1041500041F09091C00095FFFCCF8093C60031964E
:10416000F5CF609100097091010980910209909149
:10417000030942E00E94CF53ECEAF8E084918823DF
:1041800041F09091C00095FFFCCF8093C60031961E
:10419000F5CF0E94666480E090E0A8E4B3E48093E9
:1041A000810290938202A0938302B09384020C94C4
:1041B000B9488091EF0681110C94B9488091670B42
:1041C000882311F40C94B9480E94027C80918102EA
:1041D00090918202A0918302B091840280932B0679
:1041E00090932C06A0932D06B0932E06809160022A
:1041F0009091610290932A068093290684E690E0CC
:1042000090936102809360020E94F89A6093DF0AA3
:104210007093E00A8093E10A9093E20A81E0809330
:1042200013028093870283E50E941F65882391F023
:104230000E94CD6560938102709382028093830215
:104240009093840220E030E048E453E40E9444A7C5
:10425000181664F480E090E0A8E4B3E4809381024F
:1042600090938202A0938302B09384020E948955A6
:1042700020E030E040E752E46091810270918202D8
:1042800080918302909184020E94DEA54B015C0123
:104290002091FC083091FD084091FE085091FF08E4
:1042A0006091F8087091F9088091FA089091FB08E4
:1042B000E6EEF8E0FF93EF93F4E0CF2EF9E0DF2E87
:1042C000E12CF12C00E211EC0E94ED870E94027CAF
:1042D00082E00E9496637B018C012091FC08309162
:1042E000FD084091FE085091FF086091F808709118
:1042F000F9088091FA089091FB080E94A054E8EA1E
:10430000F8E084910F900F90882349F09091C000BD
:1043100095FFFCCF8093C60031968491F5CFE3EAF8
:10432000F8E08491882341F09091C00095FFFCCF84
:104330008093C6003196F5CF6091F8087091F90826
:104340008091FA089091FB0842E00E94CF53EEE979
:10435000F8E08491882341F09091C00095FFFCCF54
:104360008093C6003196F5CF6091FC087091FD08EE
:104370008091FE089091FF0842E00E94CF53E9E946
:10438000F8E08491882341F09091C00095FFFCCF24
:104390008093C6003196F5CF6091000970910109B4
:1043A000809102099091030942E00E94CF53E7E90E
:1043B000F8E08491882341F09091C00095FFFCCFF4
:1043C0008093C6003196F5CF0E9466640C94B9487C
:1043D00081E08093D70A0C94B94888E50E941F6554
:1043E000882319F081E08093090289E50E941F6506
:1043F000882319F081E08093080285E40E941F65FC
:10440000811102C00E94027C65E2662E63E0762E76
:1044100078EFA72E78E0B72EE9E08E2EEBE09E2E07
:10442000D12CD3018D913D010E941F65882309F491
:1044300062C0B3E0DB1237C00E94CD65F501608336
:104440007183828393832091380930913909409197
:104450003A0950913B0960910409709105098091D6
:104460000609909107090E94AFA90E94F8A76093DE
:1044700028097093290980932A0990932B098FB7F3
:10448000F894409128095091290960912A09709166
:104490002B094093F4085093F5086093F608709345
:1044A000F7088FBF28C00E94CD65D4012D913D91A2
:1044B0004D915C910E94E4A4F50160837183828335
:1044C0009383E0900009F090010900910209109196
:1044D00003092091FC083091FD084091FE0850919D
:1044E000FF086091F8087091F9088091FA0890919E
:1044F000FB080E94A054D394F4E0AF0EB11C04E07A
:10450000800E911C14E0D1128CCF0C94B9488DE42C
:104510000E941F65882311F40C94E5470E94CD6525
:104520000E9450A66E3B22E0720711F40C941138E1
:104530000CF0A0C16E3B710509F4C6C50CF0D4C0E7
:104540006435710509F481C60CF075C06A327105D5
:1045500009F485C30CF042C06530710511F40C9468
:10456000CE3E14F56330710511F40C94B93C6430FF
:10457000710511F00C94B9480E94027C0E94F89ACF
:104580006B017C011CEDC10E15E0D11EE11CF11C7C
:104590000E94F89A6093DF0A7093E00A8093E10A20
:1045A0009093E20A0C94CE3D6231710509F44DC638
:1045B0006F31710509F4D0C26131710511F00C94AD
:1045C000B9485F988A989FB7F894809108018E7FC8
:1045D000809308019FBF12980C94B9486E337105FF
:1045E00009F483C354F46C33710509F453C36D3378
:1045F000710509F463C30C94B9486235710509F477
:104600001BC60CF01DC66135710511F00C94B9483C
:104610000E94855B0E94027C129A0E948363109222
:1046200094101092931068EE73E080E090E00E9486
:10463000999A0C94B9486D36710509F48EC49CF5AD
:104640006836710509F45AC3ECF46535710509F44F
:1046500034C66C35710511F00C94B94855E2C52E7D
:1046600053E0D52E0CE219E067E7E62E60E1F62E66
:1046700027E43BE0CF5CDE4F39832883C153D14030
:10468000712CA9C66A36710509F4A6C50CF47BC362
:104690006B36710511F00C94B94810929410109279
:1046A00093100C94B9486737710509F452C284F429
:1046B0006337710509F49FC66537710509F4AAC609
:1046C0006237710511F00C94B948EDE7F7E0BBC60D
:1046D0006937710509F48FC70CF489C76C38710507
:1046E00009F43EC30C94B948603941E0740711F4F1
:1046F0000C9491340CF062C06C3D710511F40C9473
:10470000A62D9CF56B3C710511F40C94EE2CACF4C9
:10471000683C710511F40C94122C693C710511F080
:104720000C94B94837E5E32E3BE0F32E05E213E0A5
:1047300044E0D42ED00E0C94D42C6D3C710511F4B1
:104740000C942F2D14F40C940D2D6E3C710511F06A
:104750000C94B94819E0E12E1BE0F12E05E213E0BC
:1047600083E0D82ED00E0C94962D6C3281E0780721
:1047700011F40C94062F94F4623E710511F40C941C
:10478000E12D6831A1E07A0711F40C94F52D6D3D0F
:10479000710511F00C94B9480C94B72D6E32B1E04C
:1047A0007B0711F40C94133014F40C944C2F6F32DB
:1047B000714011F40C9428300C94B948643F01E026
:1047C000700711F40C94BA3464F5623C21E072076E
:1047D00011F40C9499347CF4613941E0740711F4BC
:1047E0000C9495346239714011F00C94B9480E94D0
:1047F0000C640C94B948643C81E0780711F40C9483
:10480000B23414F40C94AA34653C714011F00C9449
:10481000B94860E083E00E94FE650E948F660C94B8
:10482000B9486333B2E07B0711F40C940A3F94F467
:10483000663FF1E07F0711F40C94C23414F40C9439
:10484000BE34673F714011F00C94B948E0E1F6E0E6
:104850000C94CD346C3B22E0720711F40C94AD370C
:1048600014F00C94E5376F33724011F40C94B83F98
:104870000C94B9486A3E52E0750711F40C949241C9
:104880000CF0A4C0663D92E0790711F40C94A73AAD
:104890000CF04FC0683CB2E07B0711F40C94E03997
:1048A0002CF5613CF2E07F0711F40C949B3874F412
:1048B0006F3B12E0710711F40C945638603C724063
:1048C00011F00C94B9485E9A0C94B948663C32E0F9
:1048D000730711F40C94D63814F00C948439623CAC
:1048E000724011F40C949E380C94B948623D82E0F9
:1048F000780711F40C949E3A84F4603DA2E07A07A4
:1049000011F40C948A3A14F00C949A3A6A3C72406E
:1049100011F40C943C3A0C94B948643DF2E07F07E2
:1049200011F40C94A13A14F00C94A43A119A0C943A
:10493000B9486E3D12E0710711F40C94713C24F5F6
:10494000693D32E0730711F40C943E3B6CF4673D13
:1049500052E0750711F40C94B13A683D724011F4BD
:104960000C94BB3A0C94B9486B3D92E0790711F472
:104970000C94183C14F40C94ED3B6C3D724011F413
:104980000C94243C0C94B948663EE2E07E0711F496
:104990000C94FD4084F4643E02E0700711F40C9422
:1049A000C74014F00C94E1406F3D724011F40C9438
:1049B000A23C0C94B948683E32E0730711F40C94A1
:1049C0002F4114F40C9416410C9466416F3F52E051
:1049D000750709F4B6C00CF05BC0643F92E079073C
:1049E00011F40C94774334F56F3EB2E07B0711F479
:1049F0000C9466427CF46B3EF2E07F0711F40C9459
:104A0000DD416E3E724011F00C94B948E1EEF6E0E3
:104A10000C945042613F12E0710711F40C94BE42B5
:104A200014F40C949242623F724011F40C94EA42E6
:104A30000C94B9486B3F42E0740711F40C94CA43DC
:104A4000DCF4693F82E0780711F40C94924314F08F
:104A50000C94A543683F724011F00C94B9486091E2
:104A600021067091220680912306909124064AE047
:104A70000E9447530C948A436D3FB2E07B0709F4D0
:104A800064C014F40C94E643EEE7F3E00C94104495
:104A90006831F3E07F0711F40C941E4624F5603171
:104AA00013E0710711F40C949F447CF46B3033E0F5
:104AB000730711F40C942C446E30734011F00C9475
:104AC000B948E4E6F3E00C947444623153E07507AE
:104AD000A1F114F40C94D5456631734011F40C9493
:104AE00047460C94B9486232A3E07A0711F40C945B
:104AF000424784F46032E3E07E0711F40C94FD46F3
:104B000014F00C941A476931734011F40C94BB46AD
:104B10000C94B948663E13E0710711F40C94C34736
:104B2000673E23E0720711F40C94CD476432734062
:104B300011F00C94B9480C94A447EAE5F3E00C9406
:104B40001646E6E7F3E00C942144E3E9F3E00C9425
:104B5000FF43ECEAF3E05AC50E94F89A60933606E8
:104B60007093370680933806909339060091320689
:104B7000109133062091340630913506601B710B7D
:104B8000820B930B28EE33E040E050E00E940AB223
:104B9000CA01B9012CE330E040E050E00E940AB2C3
:104BA0007F936F933F932F9388E898E09F938F9321
:104BB0008E010F5F1F4F1F930F930E9494AEEDE085
:104BC000FAE084910FB6F894DEBF0FBECDBF882304
:104BD00049F09091C00095FFFCCF8093C6003196BC
:104BE0008491F5CFF8018191882339F09091C0002C
:104BF00095FFFCCF8093C600F6CF8091C00085FF63
:104C0000FCCF8AE08093C6008091DC0A882311F4EF
:104C10000C94B9481092DC0A0091E60810E0000FED
:104C2000111F0659154FD8016D917C91072E000C6C
:104C3000880B990B0E94CBAE20916A0230916B02D7
:104C400040916C0250916D020E9444A7181614F016
:104C50000C94B948F801118210820C94B94883E58C
:104C60000E941F65882311F40C94B9480E94CD65F9
:104C70000E9450A68B0180E50E941F65882311F4D5
:104C80000C94B9480F3F110509F010F40C94754DC0
:104C90000C94B948109231068091EF0681110C9462
:104CA000B9488091780A823011F00C94784D0E94B6
:104CB00098A481110C949A4D0C94784D81E08093C6
:104CC00031060E94027C8091EF0681110C94B94854
:104CD0008091780A823011F00C94E34D0E9498A4E0
:104CE00081110C94BC4D0C94E34D809131068111DF
:104CF0000E94027C1092080B0C94B94888E690E060
:104D00000E94EB7A81110C94B9488091E30890914C
:104D1000E408029750F480910702882331F08FEF66
:104D200090E090939410809393101092700283E51A
:104D30000E941F65882311F40C94B9481091070B49
:104D40000E94CD65212F30E0220F331F89010659C3
:104D5000154F0E9450A6D8016D937C930C94B948CE
:104D60001092700283E50E941F65882311F40C9451
:104D7000B9480E94CD650E9450A67093700A609356
:104D80006F0A0C94B94889E690E00E94EB7A811191
:104D90000C94B948EDE5F8E08491882341F09091B6
:104DA000C00095FFFCCF8093C6003196F5CFE0910F
:104DB000070BB4E0EB9FF0011124EA59F54F608135
:104DC00071818281938141E00E94CF53EAE5F8E04E
:104DD0008491882341F09091C00095FFFCCF80938F
:104DE000C6003196F5CFE091070BF0E0EE0FFF1F04
:104DF000E659F54F60817181072E000C880B990BE5
:104E00000E94CBAE41E00E94CF53E6E5F8E08491EA
:104E1000882341F09091C00095FFFCCF8093C6009D
:104E20003196F5CF6091620A7091630A8091640AAD
:104E30009091650A41E00E94CF53E3E5F8E0849148
:104E4000882341F09091C00095FFFCCF8093C6006D
:104E50003196F5CF60916F0A7091700A072E000CA1
:104E6000880B990B0E94CBAE41E00E94CF53E0E546
:104E7000F8E08491882341F09091C00095FFFCCF29
:104E80008093C6003196F5CF60E070E0CB010E94C0
:104E9000BC53EEE4F8E08491882341F09091C00087
:104EA00095FFFCCF8093C6003196F5CF6091660ADE
:104EB0007091670A8091680A9091690A41E00E94A6
:104EC000CF53EBE4F8E08491882341F09091C00047
:104ED00095FFFCCF8093C6003196F5CF60916A0AAA
:104EE00070916B0A072E000C880B990B0E94CBAEB9
:104EF00041E00E94CF53E7E4F8E08491882341F039
:104F00009091C00095FFFCCF8093C6003196F5CFFD
:104F1000E091070BF0E0E958F54F608170E080E028
:104F200090E00E94BC53E2E4F8E08491882341F0D1
:104F30009091C00095FFFCCF8093C6003196F5CFCD
:104F40006091760A70E080E090E00E94BC5380910E
:104F5000C00085FFFCCF0C94E5468DE690E00E94F2
:104F6000EB7A81110C94B9488091E3089091E408A0
:104F7000029750F480910702882331F08FEF90E080
:104F80009093941080939310109270021092DC0A08
:104F900083E50E941F658823A1F01091070B0E94F2
:104FA000CD65212F30E0220F331F89010659154F9F
:104FB0000E9450A6F8017183608381E0809306020D
:104FC00017C082E50E941F65882391F01091070B9E
:104FD0000E94CD65212F30E0220F331F8901065931
:104FE000154F0E9450A6D8016D937C931092060233
:104FF00083E50E941F65882351F00E94CD65609370
:105000006A0270936B0280936C0290936D0282E44B
:105010000E941F65882351F00E94CD656093620253
:1050200070936302809364029093650286E40E9409
:105030001F65882369F00E94CD65609366027093B6
:105040006702809368029093690281E08093DC0A92
:105050000E94F89A4B015C010091070B10E0F801E7
:10506000EE0FFF1FE659F54F60817181072E000C8E
:10507000880B990B0E94CBAE000F111F000F111F60
:10508000F801EA59F54F11E02081318142815381C5
:105090000E9444A718160CF010E010933006CC24A0
:1050A000CA94DC2C760177E3272E78E0372EE8EEE1
:1050B0004E2EE3E05E2E612C712C8091EF06811163
:1050C0000C94324F0C94054E1092700283E50E94AE
:1050D0001F65882361F00E94CD650E9450A67093E1
:1050E000700A60936F0A81E0809306020FC082E528
:1050F0000E941F65882351F00E94CD650E9450A632
:105100007093700A60936F0A109206020E94F89AD8
:105110004B015C0160916F0A7091700A072E000CC0
:10512000880B990B0E94CBAE11E02091620A30915E
:10513000630A4091640A5091650A0E9444A71816B8
:105140000CF010E01093300604E318E070E3E72E53
:1051500078E0F72EECE2CE2EE8E0DE2EFAE07F2EAD
:105160008091300660916F0A7091700A8823A1F0D7
:10517000072E000C880B990B0E94CBAE2091620A7F
:105180003091630A4091640A5091650A0E9444A7D5
:105190001816DCF00C94B34F072E000C880B990BFB
:1051A0000E94CBAE2091620A3091630A4091640A5A
:1051B0005091650A0E94C4AE87FD02C00C94B34FA3
:1051C0008091060281110C94B34F8091EF068111FA
:1051D0000C94B34F0C94474F83E50E941F658823BE
:1051E00019F10E94CD6520E030E0A9010E94C4AE13
:1051F00087FD0FC00E94CD6520E030E04FE753E40B
:105200000E9444A7181644F00E94CD650E9450A643
:1052100005C060E070E002C06FEF70E07093941022
:10522000609393100C94B9488FEF90E09093941092
:10523000809393100C94B9481092DB0A0C94B948EF
:1052400081E08093DB0A0C94B94883E50E941F65D6
:105250008823A1F00E94CD6520E030E04AE754E4C5
:105260000E94AFA90E9457A66093710270937202C8
:1052700080937302909374020C94B94888E50E945D
:105280001F6581110C94BE4F89E50E941F65811135
:105290000C94BE4F8AE50E941F6581110C94BE4F8D
:1052A00085E40E941F6581110C94BE4F0E94027C10
:1052B000129A0E9483630C94B94883E50E941F658B
:1052C0000E94CD6520E030E04AE754E40E94AFA997
:1052D0000E9457A6609371027093720280937302CA
:1052E000909374020C94B948B3E07B127CC00E9486
:1052F000CD654B015C0120E030E040EA51E40E94C2
:10530000C4AE87FF49C0A5019401F8016081718195
:10531000828193810E94DEA51B012C019B01AC01BF
:105320006091631070916410809165109091661087
:105330000E94AFA96093631070936410809365100E
:1053400090936610A2019101D7016D917D918D918D
:105350009C910E94AFA9F70160837183828393833C
:10536000CF5CDE4FA881B981C153D1406D917D9151
:105370008D919C910E94C9AEA20191010E94AFA99A
:105380000E9457A6CF5CDE4FE881F981C153D1401E
:105390006083718382839383D8018D929D92AD92B5
:1053A000BC92139773940C5F1F4FF4E0EF0EF11C47
:1053B000CF5CDE4F28813981C153D1402C5F3F4FF4
:1053C000CF5CDE4F39832883C153D14034E073165C
:1053D00011F40C94B948D6018D916D010E941F659E
:1053E000882301F381CF0E94CD65F801608371832A
:1053F00082839383D7CFE0E8F7E08491882311F488
:105400000C94B9489091C00095FFFCCF8093C600E2
:105410003196F3CF8091F4069091F5066AE270E040
:1054200005960E948BA9009711F40C94B948FC01D1
:10543000319710820C94B9489091C00095FFFCCF31
:105440008093C600319684918111F6CF6091F8085F
:105450007091F9088091FA089091FB0842E00E944F
:10546000CF53E9E7F7E08491882341F09091C000A1
:1054700095FFFCCF8093C6003196F5CF6091FC0874
:105480007091FD088091FE089091FF0842E00E9413
:10549000CF53E5E7F7E08491882341F09091C00075
:1054A00095FFFCCF8093C6003196F5CF609100093F
:1054B00070910109809102099091030942E00E94D4
:1054C000CF53E1E7F7E08491882341F09091C00049
:1054D00095FFFCCF8093C6003196F5CF609104090B
:1054E00070910509809106099091070942E00E9498
:1054F000CF53E6E6F7E08491882341F09091C00015
:1055000095FFFCCF8093C6003196F5CF2FB7F89466
:105510006091E8087091E9088091EA089091EB08A1
:105520002FBF0E94CBAE20912C0930912D094091C4
:105530002E0950912F090E94DEA542E00E94CF5310
:10554000E2E6F7E08491882341F09091C00095FF56
:10555000FCCF8093C6003196F5CF2FB7F8946091B9
:10556000EC087091ED088091EE089091EF082FBF44
:105570000E94CBAE2091300930913109409132091F
:10558000509133090E94DEA542E00E94CF53EEE520
:10559000F7E08491882341F09091C00095FFFCCF03
:1055A0008093C6003196F5CF2FB7F8946091F0083C
:1055B0007091F1088091F2089091F3082FBF0E943A
:1055C000CBAE209134093091350940913609509184
:1055D00037090E94DEA542E00E94CF538091C000AF
:1055E00085FFFCCF8AE08093C6000C94B9481092E6
:1055F00013020C94B94881E0809313020C94B948CB
:105600009091C00095FFFCCF8093C60081918111DD
:10561000F7CF8091C00085FFFCCF8AE08093C60061
:10562000E6E5F7E08491882341F09091C00095FF72
:10563000FCCF8093C6003196F5CF8CB182958170F6
:1056400090916A06891303C0EFE3F3E009C0E4E434
:10565000F3E006C09091C00095FFFCCF8093C60098
:1056600081918111F7CF8091C00085FFFCCF8AE046
:105670008093C600EEE4F7E08491882341F0909196
:10568000C00095FFFCCF8093C6003196F5CF8CB15A
:1056900085FB882780F990916806891303C0EFE3A2
:1056A000F3E009C0E4E4F3E006C09091C00095FF88
:1056B000FCCF8093C60081918111F7CF8091C0000B
:1056C00085FFFCCF8AE08093C600E6E4F7E0849192
:1056D000882341F09091C00095FFFCCF8093C600D5
:1056E0003196F5CF80910301817090911B0289134F
:1056F00003C0EFE3F3E009C0E4E4F3E006C09091F7
:10570000C00095FFFCCF8093C60081918111F7CF37
:105710008091C00085FFFCCF8AE08093C600EEE355
:10572000F7E08491882341F09091C00095FFFCCF71
:105730008093C6003196F5CF8091030186958170E4
:1057400090911A02891303C0EFE3F3E009C0E4E487
:10575000F3E006C09091C00095FFFCCF8093C60097
:1057600081918111F7CF8091C00085FFFCCF8AE045
:105770008093C600E6E3F7E08491882341F090919E
:10578000C00095FFFCCF8093C6003196F5CF89B15C
:1057900082FB882780F990918802891303C0EFE388
:1057A000F3E009C0E4E4F3E006C09091C00095FF87
:1057B000FCCF8093C60081918111F7CF8091C0000A
:1057C00085FFFCCF8AE08093C600EEE2F7E084918B
:1057D000882341F09091C00095FFFCCF8093C600D4
:1057E0003196F5CF89B183FB882780F990918602A5
:1057F000891303C0EFE3F3E009C0E4E4F3E006C07B
:105800009091C00095FFFCCF8093C60081918111DB
:10581000F7CF8091C00085FFFCCF8AE08093C6005F
:105820000C94B94884E40E941F65882311F40C94F9
:10583000B9480E94CD6520E030E040E05FE30E947F
:10584000AFA96B017C0120E030E0A9010E94C4AE49
:10585000882379F0A7019601C701B6010E94AFA97C
:105860002BED3FE049E450E40E94AFA99B01AC015D
:1058700004C020E030E040E85FE38091E6088093D8
:10588000070B84E5CF57DE4F2883C158D140CE5750
:10589000DE4F3883C258D140CD57DE4F4883C358BE
:1058A000D140CC57DE4F5883C458D1400E941F6569
:1058B000CF57DE4F2881C158D140CE57DE4F3881B7
:1058C000C258D140CD57DE4F4881C358D140CC5744
:1058D000DE4F5881C458D140811116C00091070B8A
:1058E00084E0089F8001112401571D4F60E070E0A3
:1058F00080E89FE30E94DEA5D8016D937D938D9390
:105900009C9313970C94B948CF57DE4F2883C15806
:10591000D140CE57DE4F3883C258D140CD57DE4FED
:105920004883C358D140CC57DE4F5883C458D14028
:105930000E94CD650E9457A6E62FF0E0E05EFD4F85
:1059400080818093070BCF57DE4F2881C158D1400B
:10595000CE57DE4F3881C258D140CD57DE4F4881F7
:10596000C358D140CC57DE4F5881C458D14088230A
:1059700009F4B4CFEDE0FAE08491882341F09091EE
:10598000C00095FFFCCF8093C6003196F5CFE7ECC1
:10599000F3E08191882309F4A1CF9091C00095FF95
:1059A000FCCF8093C600F5CFF80181918F010E9452
:1059B0001F65882351F00E94CD650E9457A6D7012C
:1059C0006D937D938D939C931397B4E0EB0EF11C34
:1059D000D012EACF0E94E0840C94B94897E7E92EF0
:1059E00090E1F92E05E213E024E0D22ED00EF8016A
:1059F00081918F010E941F65882341F00E94CD652F
:105A0000D7016D937D938D939C931397B4E0EB0E28
:105A1000F11CD012ECCF0C94B94883E50E941F65AD
:105A2000882351F00E94CD6560936F1070937010C1
:105A3000809371109093721084E50E941F658823F3
:105A400011F40C94B9480E94CD6560937310709363
:105A5000741080937510909376100C94B94883E578
:105A60000E941F65882351F00E94CD6560938B10C2
:105A700070938C1080938D1090938E1084E50E940B
:105A80001F65882351F00E94CD6560938F1070933D
:105A90009010809391109093921082E40E941F6561
:105AA000882361F00E94CD650E9457A660938710FD
:105AB000709388108093891090938A1088E50E94D3
:105AC0001F65882351F00E94CD6560936B10709321
:105AD0006C1080936D1090936E108AE50E941F6584
